{
  "contractName": "TicketsFactory",
  "abi": [
    {
      "constant": true,
      "inputs": [],
      "name": "nftAddress",
      "outputs": [
        {
          "name": "",
          "type": "address"
        }
      ],
      "payable": false,
      "stateMutability": "view",
      "type": "function"
    },
    {
      "constant": true,
      "inputs": [],
      "name": "baseURI",
      "outputs": [
        {
          "name": "",
          "type": "string"
        }
      ],
      "payable": false,
      "stateMutability": "view",
      "type": "function"
    },
    {
      "constant": false,
      "inputs": [],
      "name": "renounceOwnership",
      "outputs": [],
      "payable": false,
      "stateMutability": "nonpayable",
      "type": "function"
    },
    {
      "constant": true,
      "inputs": [],
      "name": "eventuuid",
      "outputs": [
        {
          "name": "",
          "type": "string"
        }
      ],
      "payable": false,
      "stateMutability": "view",
      "type": "function"
    },
    {
      "constant": true,
      "inputs": [],
      "name": "owner",
      "outputs": [
        {
          "name": "",
          "type": "address"
        }
      ],
      "payable": false,
      "stateMutability": "view",
      "type": "function"
    },
    {
      "constant": true,
      "inputs": [],
      "name": "proxyRegistryAddress",
      "outputs": [
        {
          "name": "",
          "type": "address"
        }
      ],
      "payable": false,
      "stateMutability": "view",
      "type": "function"
    },
    {
      "constant": false,
      "inputs": [
        {
          "name": "_newOwner",
          "type": "address"
        }
      ],
      "name": "transferOwnership",
      "outputs": [],
      "payable": false,
      "stateMutability": "nonpayable",
      "type": "function"
    },
    {
      "inputs": [
        {
          "name": "_proxyRegistryAddress",
          "type": "address"
        },
        {
          "name": "_nftAddress",
          "type": "address"
        },
        {
          "name": "_eventuuid",
          "type": "string"
        }
      ],
      "payable": false,
      "stateMutability": "nonpayable",
      "type": "constructor"
    },
    {
      "anonymous": false,
      "inputs": [
        {
          "indexed": true,
          "name": "previousOwner",
          "type": "address"
        }
      ],
      "name": "OwnershipRenounced",
      "type": "event"
    },
    {
      "anonymous": false,
      "inputs": [
        {
          "indexed": true,
          "name": "previousOwner",
          "type": "address"
        },
        {
          "indexed": true,
          "name": "newOwner",
          "type": "address"
        }
      ],
      "name": "OwnershipTransferred",
      "type": "event"
    },
    {
      "constant": true,
      "inputs": [],
      "name": "name",
      "outputs": [
        {
          "name": "",
          "type": "string"
        }
      ],
      "payable": false,
      "stateMutability": "view",
      "type": "function"
    },
    {
      "constant": true,
      "inputs": [],
      "name": "symbol",
      "outputs": [
        {
          "name": "",
          "type": "string"
        }
      ],
      "payable": false,
      "stateMutability": "view",
      "type": "function"
    },
    {
      "constant": true,
      "inputs": [],
      "name": "supportsFactoryInterface",
      "outputs": [
        {
          "name": "",
          "type": "bool"
        }
      ],
      "payable": false,
      "stateMutability": "view",
      "type": "function"
    },
    {
      "constant": true,
      "inputs": [],
      "name": "numOptions",
      "outputs": [
        {
          "name": "",
          "type": "uint256"
        }
      ],
      "payable": false,
      "stateMutability": "view",
      "type": "function"
    },
    {
      "constant": false,
      "inputs": [
        {
          "name": "_optionId",
          "type": "uint256"
        },
        {
          "name": "_toAddress",
          "type": "address"
        }
      ],
      "name": "mint",
      "outputs": [],
      "payable": false,
      "stateMutability": "nonpayable",
      "type": "function"
    },
    {
      "constant": true,
      "inputs": [
        {
          "name": "_optionId",
          "type": "uint256"
        }
      ],
      "name": "canMint",
      "outputs": [
        {
          "name": "",
          "type": "bool"
        }
      ],
      "payable": false,
      "stateMutability": "view",
      "type": "function"
    },
    {
      "constant": true,
      "inputs": [
        {
          "name": "_optionId",
          "type": "uint256"
        }
      ],
      "name": "tokenURI",
      "outputs": [
        {
          "name": "",
          "type": "string"
        }
      ],
      "payable": false,
      "stateMutability": "view",
      "type": "function"
    },
    {
      "constant": false,
      "inputs": [
        {
          "name": "_from",
          "type": "address"
        },
        {
          "name": "_to",
          "type": "address"
        },
        {
          "name": "_tokenId",
          "type": "uint256"
        }
      ],
      "name": "transferFrom",
      "outputs": [],
      "payable": false,
      "stateMutability": "nonpayable",
      "type": "function"
    },
    {
      "constant": true,
      "inputs": [
        {
          "name": "_owner",
          "type": "address"
        },
        {
          "name": "_operator",
          "type": "address"
        }
      ],
      "name": "isApprovedForAll",
      "outputs": [
        {
          "name": "",
          "type": "bool"
        }
      ],
      "payable": false,
      "stateMutability": "view",
      "type": "function"
    },
    {
      "constant": true,
      "inputs": [
        {
          "name": "_tokenId",
          "type": "uint256"
        }
      ],
      "name": "ownerOf",
      "outputs": [
        {
          "name": "_owner",
          "type": "address"
        }
      ],
      "payable": false,
      "stateMutability": "view",
      "type": "function"
    }
  ],
  "bytecode": "0x6080604052608060405190810160405280604d81526020017f68747470733a2f2f6e7565667771736476332e657865637574652d6170692e7581526020017f732d656173742d312e616d617a6f6e6177732e636f6d2f74657374696e672f6381526020017f727970746f7469636b6574732f00000000000000000000000000000000000000815250600490805190602001906200009e929190620001e2565b5060646005556002600655600060075560016008556004600955348015620000c557600080fd5b5060405162001d0f38038062001d0f833981018060405281019080805190602001909291908051906020019092919080518201929190505050336000806101000a81548173ffffffffffffffffffffffffffffffffffffffff021916908373ffffffffffffffffffffffffffffffffffffffff16021790555082600160006101000a81548173ffffffffffffffffffffffffffffffffffffffff021916908373ffffffffffffffffffffffffffffffffffffffff16021790555081600260006101000a81548173ffffffffffffffffffffffffffffffffffffffff021916908373ffffffffffffffffffffffffffffffffffffffff1602179055508060039080519060200190620001d8929190620001e2565b5050505062000291565b828054600181600116156101000203166002900490600052602060002090601f016020900481019282601f106200022557805160ff191683800117855562000256565b8280016001018555821562000256579182015b828111156200025557825182559160200191906001019062000238565b5b50905062000265919062000269565b5090565b6200028e91905b808211156200028a57600081600090555060010162000270565b5090565b90565b611a6e80620002a16000396000f3006080604052600436106100f1576000357c0100000000000000000000000000000000000000000000000000000000900463ffffffff16806306fdde03146100f657806323b872dd146101865780634b97aed9146101f35780635bf8633a1461021e5780635dd871a3146102755780636352211e146102ba5780636c0360eb14610327578063715018a6146103b757806389908ad9146103ce5780638da5cb5b1461045e57806394bf804d146104b557806395d89b4114610502578063c311c52314610592578063c87b56dd146105c1578063cd7c032614610667578063e985e9c5146106be578063f2fde38b14610739575b600080fd5b34801561010257600080fd5b5061010b61077c565b6040518080602001828103825283818151815260200191508051906020019080838360005b8381101561014b578082015181840152602081019050610130565b50505050905090810190601f1680156101785780820380516001836020036101000a031916815260200191505b509250505060405180910390f35b34801561019257600080fd5b506101f1600480360381019080803573ffffffffffffffffffffffffffffffffffffffff169060200190929190803573ffffffffffffffffffffffffffffffffffffffff169060200190929190803590602001909291905050506107b9565b005b3480156101ff57600080fd5b506102086107c8565b6040518082815260200191505060405180910390f35b34801561022a57600080fd5b506102336107d2565b604051808273ffffffffffffffffffffffffffffffffffffffff1673ffffffffffffffffffffffffffffffffffffffff16815260200191505060405180910390f35b34801561028157600080fd5b506102a0600480360381019080803590602001909291905050506107f8565b604051808215151515815260200191505060405180910390f35b3480156102c657600080fd5b506102e56004803603810190808035906020019092919050505061090e565b604051808273ffffffffffffffffffffffffffffffffffffffff1673ffffffffffffffffffffffffffffffffffffffff16815260200191505060405180910390f35b34801561033357600080fd5b5061033c610939565b6040518080602001828103825283818151815260200191508051906020019080838360005b8381101561037c578082015181840152602081019050610361565b50505050905090810190601f1680156103a95780820380516001836020036101000a031916815260200191505b509250505060405180910390f35b3480156103c357600080fd5b506103cc6109d7565b005b3480156103da57600080fd5b506103e3610ad9565b6040518080602001828103825283818151815260200191508051906020019080838360005b83811015610423578082015181840152602081019050610408565b50505050905090810190601f1680156104505780820380516001836020036101000a031916815260200191505b509250505060405180910390f35b34801561046a57600080fd5b50610473610b77565b604051808273ffffffffffffffffffffffffffffffffffffffff1673ffffffffffffffffffffffffffffffffffffffff16815260200191505060405180910390f35b3480156104c157600080fd5b5061050060048036038101908080359060200190929190803573ffffffffffffffffffffffffffffffffffffffff169060200190929190505050610b9c565b005b34801561050e57600080fd5b50610517610f27565b6040518080602001828103825283818151815260200191508051906020019080838360005b8381101561055757808201518184015260208101905061053c565b50505050905090810190601f1680156105845780820380516001836020036101000a031916815260200191505b509250505060405180910390f35b34801561059e57600080fd5b506105a7610f64565b604051808215151515815260200191505060405180910390f35b3480156105cd57600080fd5b506105ec60048036038101908080359060200190929190505050610f6d565b6040518080602001828103825283818151815260200191508051906020019080838360005b8381101561062c578082015181840152602081019050610611565b50505050905090810190601f1680156106595780820380516001836020036101000a031916815260200191505b509250505060405180910390f35b34801561067357600080fd5b5061067c6110f3565b604051808273ffffffffffffffffffffffffffffffffffffffff1673ffffffffffffffffffffffffffffffffffffffff16815260200191505060405180910390f35b3480156106ca57600080fd5b5061071f600480360381019080803573ffffffffffffffffffffffffffffffffffffffff169060200190929190803573ffffffffffffffffffffffffffffffffffffffff169060200190929190505050611119565b604051808215151515815260200191505060405180910390f35b34801561074557600080fd5b5061077a600480360381019080803573ffffffffffffffffffffffffffffffffffffffff16906020019092919050505061134c565b005b60606040805190810160405280601781526020017f43727970746f7469636b657473204974656d2053616c65000000000000000000815250905090565b6107c38183610b9c565b505050565b6000600654905090565b600260009054906101000a900473ffffffffffffffffffffffffffffffffffffffff1681565b600080600080600654851015156108125760009350610906565b600260009054906101000a900473ffffffffffffffffffffffffffffffffffffffff1692508273ffffffffffffffffffffffffffffffffffffffff166318160ddd6040518163ffffffff167c0100000000000000000000000000000000000000000000000000000000028152600401602060405180830381600087803b15801561089b57600080fd5b505af11580156108af573d6000803e3d6000fd5b505050506040513d60208110156108c557600080fd5b810190808051906020019092919050505091506007548514156108eb57600190506108fc565b6008548514156108fb5760095490505b5b8060055403821093505b505050919050565b60008060009054906101000a900473ffffffffffffffffffffffffffffffffffffffff169050919050565b60048054600181600116156101000203166002900480601f0160208091040260200160405190810160405280929190818152602001828054600181600116156101000203166002900480156109cf5780601f106109a4576101008083540402835291602001916109cf565b820191906000526020600020905b8154815290600101906020018083116109b257829003601f168201915b505050505081565b6000809054906101000a900473ffffffffffffffffffffffffffffffffffffffff1673ffffffffffffffffffffffffffffffffffffffff163373ffffffffffffffffffffffffffffffffffffffff16141515610a3257600080fd5b6000809054906101000a900473ffffffffffffffffffffffffffffffffffffffff1673ffffffffffffffffffffffffffffffffffffffff167ff8df31144d9c2f0f6b59d69b8b98abd5459d07f2742c4df920b25aae33c6482060405160405180910390a260008060006101000a81548173ffffffffffffffffffffffffffffffffffffffff021916908373ffffffffffffffffffffffffffffffffffffffff160217905550565b60038054600181600116156101000203166002900480601f016020809104026020016040519081016040528092919081815260200182805460018160011615610100020316600290048015610b6f5780601f10610b4457610100808354040283529160200191610b6f565b820191906000526020600020905b815481529060010190602001808311610b5257829003601f168201915b505050505081565b6000809054906101000a900473ffffffffffffffffffffffffffffffffffffffff1681565b6000806000600160009054906101000a900473ffffffffffffffffffffffffffffffffffffffff1692503373ffffffffffffffffffffffffffffffffffffffff168373ffffffffffffffffffffffffffffffffffffffff1663c45527916000809054906101000a900473ffffffffffffffffffffffffffffffffffffffff166040518263ffffffff167c0100000000000000000000000000000000000000000000000000000000028152600401808273ffffffffffffffffffffffffffffffffffffffff1673ffffffffffffffffffffffffffffffffffffffff168152602001915050602060405180830381600087803b158015610c9957600080fd5b505af1158015610cad573d6000803e3d6000fd5b505050506040513d6020811015610cc357600080fd5b810190808051906020019092919050505073ffffffffffffffffffffffffffffffffffffffff161480610d4257503373ffffffffffffffffffffffffffffffffffffffff166000809054906101000a900473ffffffffffffffffffffffffffffffffffffffff1673ffffffffffffffffffffffffffffffffffffffff16145b1515610d4a57fe5b610d53856107f8565b1515610d5e57600080fd5b600260009054906101000a900473ffffffffffffffffffffffffffffffffffffffff169150600754851415610e45578173ffffffffffffffffffffffffffffffffffffffff1663755edd17856040518263ffffffff167c0100000000000000000000000000000000000000000000000000000000028152600401808273ffffffffffffffffffffffffffffffffffffffff1673ffffffffffffffffffffffffffffffffffffffff168152602001915050600060405180830381600087803b158015610e2857600080fd5b505af1158015610e3c573d6000803e3d6000fd5b50505050610f20565b600854851415610f1f57600090505b600954811015610f1e578173ffffffffffffffffffffffffffffffffffffffff1663755edd17856040518263ffffffff167c0100000000000000000000000000000000000000000000000000000000028152600401808273ffffffffffffffffffffffffffffffffffffffff1673ffffffffffffffffffffffffffffffffffffffff168152602001915050600060405180830381600087803b158015610ef957600080fd5b505af1158015610f0d573d6000803e3d6000fd5b505050508080600101915050610e54565b5b5b5050505050565b60606040805190810160405280600381526020017f4354460000000000000000000000000000000000000000000000000000000000815250905090565b60006001905090565b60606110ec60048054600181600116156101000203166002900480601f0160208091040260200160405190810160405280929190818152602001828054600181600116156101000203166002900480156110085780601f10610fdd57610100808354040283529160200191611008565b820191906000526020600020905b815481529060010190602001808311610feb57829003601f168201915b505050505060038054600181600116156101000203166002900480601f0160208091040260200160405190810160405280929190818152602001828054600181600116156101000203166002900480156110a35780601f10611078576101008083540402835291602001916110a3565b820191906000526020600020905b81548152906001019060200180831161108657829003601f168201915b50505050506040805190810160405280600181526020017f2f000000000000000000000000000000000000000000000000000000000000008152506110e7866113b3565b61150a565b9050919050565b600160009054906101000a900473ffffffffffffffffffffffffffffffffffffffff1681565b6000808373ffffffffffffffffffffffffffffffffffffffff166000809054906101000a900473ffffffffffffffffffffffffffffffffffffffff1673ffffffffffffffffffffffffffffffffffffffff161480156111a357508273ffffffffffffffffffffffffffffffffffffffff168473ffffffffffffffffffffffffffffffffffffffff16145b156111b15760019150611345565b600160009054906101000a900473ffffffffffffffffffffffffffffffffffffffff1690508373ffffffffffffffffffffffffffffffffffffffff166000809054906101000a900473ffffffffffffffffffffffffffffffffffffffff1673ffffffffffffffffffffffffffffffffffffffff1614801561133257508273ffffffffffffffffffffffffffffffffffffffff168173ffffffffffffffffffffffffffffffffffffffff1663c4552791866040518263ffffffff167c0100000000000000000000000000000000000000000000000000000000028152600401808273ffffffffffffffffffffffffffffffffffffffff1673ffffffffffffffffffffffffffffffffffffffff168152602001915050602060405180830381600087803b1580156112df57600080fd5b505af11580156112f3573d6000803e3d6000fd5b505050506040513d602081101561130957600080fd5b810190808051906020019092919050505073ffffffffffffffffffffffffffffffffffffffff16145b156113405760019150611345565b600091505b5092915050565b6000809054906101000a900473ffffffffffffffffffffffffffffffffffffffff1673ffffffffffffffffffffffffffffffffffffffff163373ffffffffffffffffffffffffffffffffffffffff161415156113a757600080fd5b6113b081611533565b50565b60606000806060600080861415611401576040805190810160405280600181526020017f30000000000000000000000000000000000000000000000000000000000000008152509450611501565b8593505b60008414151561142b578280600101935050600a8481151561142357fe5b049350611405565b826040519080825280601f01601f19166020018201604052801561145e5781602001602082028038833980820191505090505b5091506001830390505b6000861415156114fd57600a8681151561147e57fe5b066030017f0100000000000000000000000000000000000000000000000000000000000000028282806001900393508151811015156114b957fe5b9060200101907effffffffffffffffffffffffffffffffffffffffffffffffffffffffffffff1916908160001a905350600a868115156114f557fe5b049550611468565b8194505b50505050919050565b606061152985858585602060405190810160405280600081525061162d565b9050949350505050565b600073ffffffffffffffffffffffffffffffffffffffff168173ffffffffffffffffffffffffffffffffffffffff161415151561156f57600080fd5b8073ffffffffffffffffffffffffffffffffffffffff166000809054906101000a900473ffffffffffffffffffffffffffffffffffffffff1673ffffffffffffffffffffffffffffffffffffffff167f8be0079c531659141344cd1fd0a4f28419497f9722a3daafe3b4186f6b6457e060405160405180910390a3806000806101000a81548173ffffffffffffffffffffffffffffffffffffffff021916908373ffffffffffffffffffffffffffffffffffffffff16021790555050565b6060806060806060806060806000808e98508d97508c96508b95508a94508451865188518a518c51010101016040519080825280601f01601f19166020018201604052801561168b5781602001602082028038833980820191505090505b50935083925060009150600090505b885181101561174d5788818151811015156116b157fe5b9060200101517f010000000000000000000000000000000000000000000000000000000000000090047f010000000000000000000000000000000000000000000000000000000000000002838380600101945081518110151561171057fe5b9060200101907effffffffffffffffffffffffffffffffffffffffffffffffffffffffffffff1916908160001a905350808060010191505061169a565b600090505b875181101561180557878181518110151561176957fe5b9060200101517f010000000000000000000000000000000000000000000000000000000000000090047f01000000000000000000000000000000000000000000000000000000000000000283838060010194508151811015156117c857fe5b9060200101907effffffffffffffffffffffffffffffffffffffffffffffffffffffffffffff1916908160001a9053508080600101915050611752565b600090505b86518110156118bd57868181518110151561182157fe5b9060200101517f010000000000000000000000000000000000000000000000000000000000000090047f010000000000000000000000000000000000000000000000000000000000000002838380600101945081518110151561188057fe5b9060200101907effffffffffffffffffffffffffffffffffffffffffffffffffffffffffffff1916908160001a905350808060010191505061180a565b600090505b85518110156119755785818151811015156118d957fe5b9060200101517f010000000000000000000000000000000000000000000000000000000000000090047f010000000000000000000000000000000000000000000000000000000000000002838380600101945081518110151561193857fe5b9060200101907effffffffffffffffffffffffffffffffffffffffffffffffffffffffffffff1916908160001a90535080806001019150506118c2565b600090505b8451811015611a2d57848181518110151561199157fe5b9060200101517f010000000000000000000000000000000000000000000000000000000000000090047f01000000000000000000000000000000000000000000000000000000000000000283838060010194508151811015156119f057fe5b9060200101907effffffffffffffffffffffffffffffffffffffffffffffffffffffffffffff1916908160001a905350808060010191505061197a565b829950505050505050505050959450505050505600a165627a7a723058206293bfb2b19a1ab90b5b45bde4c815beb39fbfeec2c9d5ce877fad2ec7e1a2260029",
  "source": "pragma solidity ^0.4.24;\r\n\r\nimport \"../node_modules/zeppelin-solidity/contracts/ownership/Ownable.sol\";\r\nimport \"./Factory.sol\";\r\nimport \"./Cryptotickets.sol\";\r\nimport \"./Strings.sol\";\r\nimport \"./ProxyRegistry.sol\";\r\n\r\ncontract TicketsFactory is Factory, Ownable {\r\n    using Strings for string;\r\n\r\n    address public proxyRegistryAddress;\r\n    address public nftAddress;\r\n    string public eventuuid;\r\n    string public baseURI = \"https://nuefwqsdv3.execute-api.us-east-1.amazonaws.com/testing/cryptotickets/\";\r\n\r\n  /**\r\n   * Enforce the existence of only 100 OpenSea creatures.\r\n   */\r\n    uint256 TICKETS_SUPPLY = 100;\r\n\r\n  /**\r\n   * Three different options for minting Creatures (basic, premium, and gold).\r\n   */\r\n    uint256 NUM_OPTIONS = 2;\r\n    uint256 SINGLE_TICKETS_OPTION = 0;\r\n    uint256 MULTIPLE_TICKETS_OPTION = 1;\r\n    uint256 NUM_TICKETS_IN_MULTIPLE_TICKETS_OPTION = 4;\r\n\r\n    constructor(address _proxyRegistryAddress, address _nftAddress, string _eventuuid) public {\r\n        proxyRegistryAddress = _proxyRegistryAddress;\r\n        nftAddress = _nftAddress;\r\n        eventuuid = _eventuuid;\r\n    }\r\n\r\n    function name() external view returns (string) {\r\n        return \"Cryptotickets Item Sale\";\r\n    }\r\n\r\n    function symbol() external view returns (string) {\r\n        return \"CTF\";\r\n    }\r\n\r\n    function supportsFactoryInterface() public view returns (bool) {\r\n        return true;\r\n    }\r\n\r\n    function numOptions() public view returns (uint256) {\r\n        return NUM_OPTIONS;\r\n    }\r\n  \r\n    function mint(uint256 _optionId, address _toAddress) public {\r\n        // Must be sent from the owner proxy or owner.\r\n        ProxyRegistry proxyRegistry = ProxyRegistry(proxyRegistryAddress);\r\n        \r\n        assert(proxyRegistry.proxies(owner) == msg.sender || owner == msg.sender);\r\n        require(canMint(_optionId));\r\n    \r\n        Cryptotickets cryptoticket = Cryptotickets(nftAddress);\r\n        \r\n        if (_optionId == SINGLE_TICKETS_OPTION) {\r\n            cryptoticket.mintTo(_toAddress);\r\n        } else if (_optionId == MULTIPLE_TICKETS_OPTION) {\r\n            for (uint256 i = 0; i < NUM_TICKETS_IN_MULTIPLE_TICKETS_OPTION; i++) {\r\n                cryptoticket.mintTo(_toAddress);\r\n            }\r\n        } \r\n    }\r\n\r\n    function canMint(uint256 _optionId) public view returns (bool) {\r\n        if (_optionId >= NUM_OPTIONS) {\r\n            return false;\r\n        }\r\n\r\n        Cryptotickets cryptoticket = Cryptotickets(nftAddress);\r\n        uint256 ticketSupply = cryptoticket.totalSupply();\r\n\r\n        uint256 numItemsAllocated;\r\n        \r\n        if (_optionId == SINGLE_TICKETS_OPTION) {\r\n            numItemsAllocated = 1;\r\n        } else if (_optionId == MULTIPLE_TICKETS_OPTION) {\r\n            numItemsAllocated = NUM_TICKETS_IN_MULTIPLE_TICKETS_OPTION;\r\n        } \r\n        return ticketSupply < (TICKETS_SUPPLY - numItemsAllocated);\r\n    }\r\n  \r\n    function tokenURI(uint256 _optionId) public view returns (string) {\r\n        return Strings.strConcat(\r\n            baseURI,\r\n            eventuuid,\r\n            \"/\",\r\n            Strings.uint2str(_optionId)\r\n        );\r\n    }\r\n\r\n  /**\r\n   * Hack to get things to work automatically on OpenSea.\r\n   * Use transferFrom so the frontend doesn't have to worry about different method names.\r\n   */\r\n    function transferFrom(address _from, address _to, uint256 _tokenId) public {\r\n        mint(_tokenId, _to);\r\n    }\r\n\r\n  /**\r\n   * Hack to get things to work automatically on OpenSea.\r\n   * Use isApprovedForAll so the frontend doesn't have to worry about different method names.\r\n   */\r\n    function isApprovedForAll(\r\n        address _owner,\r\n        address _operator\r\n        )\r\n        public\r\n        view\r\n        returns (bool)\r\n        {\r\n        if (owner == _owner && _owner == _operator) {\r\n            return true;\r\n        }\r\n\r\n        ProxyRegistry proxyRegistry = ProxyRegistry(proxyRegistryAddress);\r\n        if (owner == _owner && proxyRegistry.proxies(_owner) == _operator) {\r\n            return true;\r\n        }\r\n\r\n        return false;\r\n    }\r\n\r\n  /**\r\n   * Hack to get things to work automatically on OpenSea.\r\n   * Use isApprovedForAll so the frontend doesn't have to worry about different method names.\r\n   */\r\n    function ownerOf(uint256 _tokenId) public view returns (address _owner) {\r\n        return owner;\r\n    }\r\n}",
  "sourcePath": "K:/code/cryptotickets/backend/contracts/TicketsFactory.sol",
  "compiler": {
    "name": "solc",
    "version": "0.4.24+commit.e67f0147.Emscripten.clang"
  },
  "schemaVersion": "3.0.0",
  "updatedAt": "2019-01-06T19:06:35.343Z",
  "devdoc": {
    "methods": {
      "renounceOwnership()": {
        "details": "Allows the current owner to relinquish control of the contract."
      },
      "transferOwnership(address)": {
        "details": "Allows the current owner to transfer control of the contract to a newOwner.",
        "params": {
          "_newOwner": "The address to transfer ownership to."
        }
      }
    }
  },
  "userdoc": {
    "methods": {
      "isApprovedForAll(address,address)": {
        "notice": "Hack to get things to work automatically on OpenSea.\r Use isApprovedForAll so the frontend doesn't have to worry about different method names.\r"
      },
      "ownerOf(uint256)": {
        "notice": "Hack to get things to work automatically on OpenSea.\r Use isApprovedForAll so the frontend doesn't have to worry about different method names.\r"
      },
      "renounceOwnership()": {
        "notice": "Renouncing to ownership will leave the contract without an owner. It will not be possible to call the functions with the `onlyOwner` modifier anymore."
      },
      "transferFrom(address,address,uint256)": {
        "notice": "Hack to get things to work automatically on OpenSea.\r Use transferFrom so the frontend doesn't have to worry about different method names.\r"
      }
    }
  }
}