{
  "contractName": "TicketsFactory",
  "abi": [
    {
      "constant": true,
      "inputs": [],
      "name": "nftAddress",
      "outputs": [
        {
          "name": "",
          "type": "address"
        }
      ],
      "payable": false,
      "stateMutability": "view",
      "type": "function"
    },
    {
      "constant": true,
      "inputs": [],
      "name": "baseURI",
      "outputs": [
        {
          "name": "",
          "type": "string"
        }
      ],
      "payable": false,
      "stateMutability": "view",
      "type": "function"
    },
    {
      "constant": false,
      "inputs": [],
      "name": "renounceOwnership",
      "outputs": [],
      "payable": false,
      "stateMutability": "nonpayable",
      "type": "function"
    },
    {
      "constant": true,
      "inputs": [],
      "name": "owner",
      "outputs": [
        {
          "name": "",
          "type": "address"
        }
      ],
      "payable": false,
      "stateMutability": "view",
      "type": "function"
    },
    {
      "constant": true,
      "inputs": [],
      "name": "proxyRegistryAddress",
      "outputs": [
        {
          "name": "",
          "type": "address"
        }
      ],
      "payable": false,
      "stateMutability": "view",
      "type": "function"
    },
    {
      "constant": false,
      "inputs": [
        {
          "name": "_newOwner",
          "type": "address"
        }
      ],
      "name": "transferOwnership",
      "outputs": [],
      "payable": false,
      "stateMutability": "nonpayable",
      "type": "function"
    },
    {
      "inputs": [
        {
          "name": "_proxyRegistryAddress",
          "type": "address"
        },
        {
          "name": "_nftAddress",
          "type": "address"
        }
      ],
      "payable": false,
      "stateMutability": "nonpayable",
      "type": "constructor"
    },
    {
      "anonymous": false,
      "inputs": [
        {
          "indexed": true,
          "name": "previousOwner",
          "type": "address"
        }
      ],
      "name": "OwnershipRenounced",
      "type": "event"
    },
    {
      "anonymous": false,
      "inputs": [
        {
          "indexed": true,
          "name": "previousOwner",
          "type": "address"
        },
        {
          "indexed": true,
          "name": "newOwner",
          "type": "address"
        }
      ],
      "name": "OwnershipTransferred",
      "type": "event"
    },
    {
      "constant": true,
      "inputs": [],
      "name": "name",
      "outputs": [
        {
          "name": "",
          "type": "string"
        }
      ],
      "payable": false,
      "stateMutability": "view",
      "type": "function"
    },
    {
      "constant": true,
      "inputs": [],
      "name": "symbol",
      "outputs": [
        {
          "name": "",
          "type": "string"
        }
      ],
      "payable": false,
      "stateMutability": "view",
      "type": "function"
    },
    {
      "constant": true,
      "inputs": [],
      "name": "supportsFactoryInterface",
      "outputs": [
        {
          "name": "",
          "type": "bool"
        }
      ],
      "payable": false,
      "stateMutability": "view",
      "type": "function"
    },
    {
      "constant": true,
      "inputs": [],
      "name": "numOptions",
      "outputs": [
        {
          "name": "",
          "type": "uint256"
        }
      ],
      "payable": false,
      "stateMutability": "view",
      "type": "function"
    },
    {
      "constant": false,
      "inputs": [
        {
          "name": "_optionId",
          "type": "uint256"
        },
        {
          "name": "_toAddress",
          "type": "address"
        }
      ],
      "name": "mint",
      "outputs": [],
      "payable": false,
      "stateMutability": "nonpayable",
      "type": "function"
    },
    {
      "constant": true,
      "inputs": [
        {
          "name": "_optionId",
          "type": "uint256"
        }
      ],
      "name": "canMint",
      "outputs": [
        {
          "name": "",
          "type": "bool"
        }
      ],
      "payable": false,
      "stateMutability": "view",
      "type": "function"
    },
    {
      "constant": true,
      "inputs": [
        {
          "name": "_optionId",
          "type": "uint256"
        }
      ],
      "name": "tokenURI",
      "outputs": [
        {
          "name": "",
          "type": "string"
        }
      ],
      "payable": false,
      "stateMutability": "view",
      "type": "function"
    },
    {
      "constant": false,
      "inputs": [
        {
          "name": "_from",
          "type": "address"
        },
        {
          "name": "_to",
          "type": "address"
        },
        {
          "name": "_tokenId",
          "type": "uint256"
        }
      ],
      "name": "transferFrom",
      "outputs": [],
      "payable": false,
      "stateMutability": "nonpayable",
      "type": "function"
    },
    {
      "constant": true,
      "inputs": [
        {
          "name": "_owner",
          "type": "address"
        },
        {
          "name": "_operator",
          "type": "address"
        }
      ],
      "name": "isApprovedForAll",
      "outputs": [
        {
          "name": "",
          "type": "bool"
        }
      ],
      "payable": false,
      "stateMutability": "view",
      "type": "function"
    },
    {
      "constant": true,
      "inputs": [
        {
          "name": "_tokenId",
          "type": "uint256"
        }
      ],
      "name": "ownerOf",
      "outputs": [
        {
          "name": "_owner",
          "type": "address"
        }
      ],
      "payable": false,
      "stateMutability": "view",
      "type": "function"
    }
  ],
  "bytecode": "0x6080604052608060405190810160405280604d81526020017f68747470733a2f2f6e7565667771736476332e657865637574652d6170692e7581526020017f732d656173742d312e616d617a6f6e6177732e636f6d2f74657374696e672f6381526020017f727970746f7469636b6574732f00000000000000000000000000000000000000815250600390805190602001906200009e929190620001bd565b5060646004556003600555600060065560016007556004600855348015620000c557600080fd5b5060405160408062001b028339810180604052810190808051906020019092919080519060200190929190505050336000806101000a81548173ffffffffffffffffffffffffffffffffffffffff021916908373ffffffffffffffffffffffffffffffffffffffff16021790555081600160006101000a81548173ffffffffffffffffffffffffffffffffffffffff021916908373ffffffffffffffffffffffffffffffffffffffff16021790555080600260006101000a81548173ffffffffffffffffffffffffffffffffffffffff021916908373ffffffffffffffffffffffffffffffffffffffff16021790555050506200026c565b828054600181600116156101000203166002900490600052602060002090601f016020900481019282601f106200020057805160ff191683800117855562000231565b8280016001018555821562000231579182015b828111156200023057825182559160200191906001019062000213565b5b50905062000240919062000244565b5090565b6200026991905b80821115620002655760008160009055506001016200024b565b5090565b90565b611886806200027c6000396000f3006080604052600436106100e6576000357c0100000000000000000000000000000000000000000000000000000000900463ffffffff16806306fdde03146100eb57806323b872dd1461017b5780634b97aed9146101e85780635bf8633a146102135780635dd871a31461026a5780636352211e146102af5780636c0360eb1461031c578063715018a6146103ac5780638da5cb5b146103c357806394bf804d1461041a57806395d89b4114610467578063c311c523146104f7578063c87b56dd14610526578063cd7c0326146105cc578063e985e9c514610623578063f2fde38b1461069e575b600080fd5b3480156100f757600080fd5b506101006106e1565b6040518080602001828103825283818151815260200191508051906020019080838360005b83811015610140578082015181840152602081019050610125565b50505050905090810190601f16801561016d5780820380516001836020036101000a031916815260200191505b509250505060405180910390f35b34801561018757600080fd5b506101e6600480360381019080803573ffffffffffffffffffffffffffffffffffffffff169060200190929190803573ffffffffffffffffffffffffffffffffffffffff1690602001909291908035906020019092919050505061071e565b005b3480156101f457600080fd5b506101fd61072d565b6040518082815260200191505060405180910390f35b34801561021f57600080fd5b50610228610737565b604051808273ffffffffffffffffffffffffffffffffffffffff1673ffffffffffffffffffffffffffffffffffffffff16815260200191505060405180910390f35b34801561027657600080fd5b506102956004803603810190808035906020019092919050505061075d565b604051808215151515815260200191505060405180910390f35b3480156102bb57600080fd5b506102da60048036038101908080359060200190929190505050610877565b604051808273ffffffffffffffffffffffffffffffffffffffff1673ffffffffffffffffffffffffffffffffffffffff16815260200191505060405180910390f35b34801561032857600080fd5b506103316108a2565b6040518080602001828103825283818151815260200191508051906020019080838360005b83811015610371578082015181840152602081019050610356565b50505050905090810190601f16801561039e5780820380516001836020036101000a031916815260200191505b509250505060405180910390f35b3480156103b857600080fd5b506103c1610940565b005b3480156103cf57600080fd5b506103d8610a42565b604051808273ffffffffffffffffffffffffffffffffffffffff1673ffffffffffffffffffffffffffffffffffffffff16815260200191505060405180910390f35b34801561042657600080fd5b5061046560048036038101908080359060200190929190803573ffffffffffffffffffffffffffffffffffffffff169060200190929190505050610a67565b005b34801561047357600080fd5b5061047c610df2565b6040518080602001828103825283818151815260200191508051906020019080838360005b838110156104bc5780820151818401526020810190506104a1565b50505050905090810190601f1680156104e95780820380516001836020036101000a031916815260200191505b509250505060405180910390f35b34801561050357600080fd5b5061050c610e2f565b604051808215151515815260200191505060405180910390f35b34801561053257600080fd5b5061055160048036038101908080359060200190929190505050610e38565b6040518080602001828103825283818151815260200191508051906020019080838360005b83811015610591578082015181840152602081019050610576565b50505050905090810190601f1680156105be5780820380516001836020036101000a031916815260200191505b509250505060405180910390f35b3480156105d857600080fd5b506105e1610eed565b604051808273ffffffffffffffffffffffffffffffffffffffff1673ffffffffffffffffffffffffffffffffffffffff16815260200191505060405180910390f35b34801561062f57600080fd5b50610684600480360381019080803573ffffffffffffffffffffffffffffffffffffffff169060200190929190803573ffffffffffffffffffffffffffffffffffffffff169060200190929190505050610f13565b604051808215151515815260200191505060405180910390f35b3480156106aa57600080fd5b506106df600480360381019080803573ffffffffffffffffffffffffffffffffffffffff169060200190929190505050611146565b005b60606040805190810160405280601781526020017f43727970746f7469636b657473204974656d2053616c65000000000000000000815250905090565b6107288183610a67565b505050565b6000600554905090565b600260009054906101000a900473ffffffffffffffffffffffffffffffffffffffff1681565b60008060008060055485101515610777576000935061086f565b600260009054906101000a900473ffffffffffffffffffffffffffffffffffffffff1692508273ffffffffffffffffffffffffffffffffffffffff166318160ddd6040518163ffffffff167c0100000000000000000000000000000000000000000000000000000000028152600401602060405180830381600087803b15801561080057600080fd5b505af1158015610814573d6000803e3d6000fd5b505050506040513d602081101561082a57600080fd5b81019080805190602001909291905050509150600090506006548514156108545760019050610865565b6007548514156108645760085490505b5b8060045403821093505b505050919050565b60008060009054906101000a900473ffffffffffffffffffffffffffffffffffffffff169050919050565b60038054600181600116156101000203166002900480601f0160208091040260200160405190810160405280929190818152602001828054600181600116156101000203166002900480156109385780601f1061090d57610100808354040283529160200191610938565b820191906000526020600020905b81548152906001019060200180831161091b57829003601f168201915b505050505081565b6000809054906101000a900473ffffffffffffffffffffffffffffffffffffffff1673ffffffffffffffffffffffffffffffffffffffff163373ffffffffffffffffffffffffffffffffffffffff1614151561099b57600080fd5b6000809054906101000a900473ffffffffffffffffffffffffffffffffffffffff1673ffffffffffffffffffffffffffffffffffffffff167ff8df31144d9c2f0f6b59d69b8b98abd5459d07f2742c4df920b25aae33c6482060405160405180910390a260008060006101000a81548173ffffffffffffffffffffffffffffffffffffffff021916908373ffffffffffffffffffffffffffffffffffffffff160217905550565b6000809054906101000a900473ffffffffffffffffffffffffffffffffffffffff1681565b6000806000600160009054906101000a900473ffffffffffffffffffffffffffffffffffffffff1692503373ffffffffffffffffffffffffffffffffffffffff168373ffffffffffffffffffffffffffffffffffffffff1663c45527916000809054906101000a900473ffffffffffffffffffffffffffffffffffffffff166040518263ffffffff167c0100000000000000000000000000000000000000000000000000000000028152600401808273ffffffffffffffffffffffffffffffffffffffff1673ffffffffffffffffffffffffffffffffffffffff168152602001915050602060405180830381600087803b158015610b6457600080fd5b505af1158015610b78573d6000803e3d6000fd5b505050506040513d6020811015610b8e57600080fd5b810190808051906020019092919050505073ffffffffffffffffffffffffffffffffffffffff161480610c0d57503373ffffffffffffffffffffffffffffffffffffffff166000809054906101000a900473ffffffffffffffffffffffffffffffffffffffff1673ffffffffffffffffffffffffffffffffffffffff16145b1515610c1557fe5b610c1e8561075d565b1515610c2957600080fd5b600260009054906101000a900473ffffffffffffffffffffffffffffffffffffffff169150600654851415610d10578173ffffffffffffffffffffffffffffffffffffffff1663755edd17856040518263ffffffff167c0100000000000000000000000000000000000000000000000000000000028152600401808273ffffffffffffffffffffffffffffffffffffffff1673ffffffffffffffffffffffffffffffffffffffff168152602001915050600060405180830381600087803b158015610cf357600080fd5b505af1158015610d07573d6000803e3d6000fd5b50505050610deb565b600754851415610dea57600090505b600854811015610de9578173ffffffffffffffffffffffffffffffffffffffff1663755edd17856040518263ffffffff167c0100000000000000000000000000000000000000000000000000000000028152600401808273ffffffffffffffffffffffffffffffffffffffff1673ffffffffffffffffffffffffffffffffffffffff168152602001915050600060405180830381600087803b158015610dc457600080fd5b505af1158015610dd8573d6000803e3d6000fd5b505050508080600101915050610d1f565b5b5b5050505050565b60606040805190810160405280600381526020017f4354460000000000000000000000000000000000000000000000000000000000815250905090565b60006001905090565b6060610ee660038054600181600116156101000203166002900480601f016020809104026020016040519081016040528092919081815260200182805460018160011615610100020316600290048015610ed35780601f10610ea857610100808354040283529160200191610ed3565b820191906000526020600020905b815481529060010190602001808311610eb657829003601f168201915b5050505050610ee1846111ad565b611304565b9050919050565b600160009054906101000a900473ffffffffffffffffffffffffffffffffffffffff1681565b6000808373ffffffffffffffffffffffffffffffffffffffff166000809054906101000a900473ffffffffffffffffffffffffffffffffffffffff1673ffffffffffffffffffffffffffffffffffffffff16148015610f9d57508273ffffffffffffffffffffffffffffffffffffffff168473ffffffffffffffffffffffffffffffffffffffff16145b15610fab576001915061113f565b600160009054906101000a900473ffffffffffffffffffffffffffffffffffffffff1690508373ffffffffffffffffffffffffffffffffffffffff166000809054906101000a900473ffffffffffffffffffffffffffffffffffffffff1673ffffffffffffffffffffffffffffffffffffffff1614801561112c57508273ffffffffffffffffffffffffffffffffffffffff168173ffffffffffffffffffffffffffffffffffffffff1663c4552791866040518263ffffffff167c0100000000000000000000000000000000000000000000000000000000028152600401808273ffffffffffffffffffffffffffffffffffffffff1673ffffffffffffffffffffffffffffffffffffffff168152602001915050602060405180830381600087803b1580156110d957600080fd5b505af11580156110ed573d6000803e3d6000fd5b505050506040513d602081101561110357600080fd5b810190808051906020019092919050505073ffffffffffffffffffffffffffffffffffffffff16145b1561113a576001915061113f565b600091505b5092915050565b6000809054906101000a900473ffffffffffffffffffffffffffffffffffffffff1673ffffffffffffffffffffffffffffffffffffffff163373ffffffffffffffffffffffffffffffffffffffff161415156111a157600080fd5b6111aa8161134b565b50565b606060008060606000808614156111fb576040805190810160405280600181526020017f300000000000000000000000000000000000000000000000000000000000000081525094506112fb565b8593505b600084141515611225578280600101935050600a8481151561121d57fe5b0493506111ff565b826040519080825280601f01601f1916602001820160405280156112585781602001602082028038833980820191505090505b5091506001830390505b6000861415156112f757600a8681151561127857fe5b066030017f0100000000000000000000000000000000000000000000000000000000000000028282806001900393508151811015156112b357fe5b9060200101907effffffffffffffffffffffffffffffffffffffffffffffffffffffffffffff1916908160001a905350600a868115156112ef57fe5b049550611262565b8194505b50505050919050565b60606113438383602060405190810160405280600081525060206040519081016040528060008152506020604051908101604052806000815250611445565b905092915050565b600073ffffffffffffffffffffffffffffffffffffffff168173ffffffffffffffffffffffffffffffffffffffff161415151561138757600080fd5b8073ffffffffffffffffffffffffffffffffffffffff166000809054906101000a900473ffffffffffffffffffffffffffffffffffffffff1673ffffffffffffffffffffffffffffffffffffffff167f8be0079c531659141344cd1fd0a4f28419497f9722a3daafe3b4186f6b6457e060405160405180910390a3806000806101000a81548173ffffffffffffffffffffffffffffffffffffffff021916908373ffffffffffffffffffffffffffffffffffffffff16021790555050565b6060806060806060806060806000808e98508d97508c96508b95508a94508451865188518a518c51010101016040519080825280601f01601f1916602001820160405280156114a35781602001602082028038833980820191505090505b50935083925060009150600090505b88518110156115655788818151811015156114c957fe5b9060200101517f010000000000000000000000000000000000000000000000000000000000000090047f010000000000000000000000000000000000000000000000000000000000000002838380600101945081518110151561152857fe5b9060200101907effffffffffffffffffffffffffffffffffffffffffffffffffffffffffffff1916908160001a90535080806001019150506114b2565b600090505b875181101561161d57878181518110151561158157fe5b9060200101517f010000000000000000000000000000000000000000000000000000000000000090047f01000000000000000000000000000000000000000000000000000000000000000283838060010194508151811015156115e057fe5b9060200101907effffffffffffffffffffffffffffffffffffffffffffffffffffffffffffff1916908160001a905350808060010191505061156a565b600090505b86518110156116d557868181518110151561163957fe5b9060200101517f010000000000000000000000000000000000000000000000000000000000000090047f010000000000000000000000000000000000000000000000000000000000000002838380600101945081518110151561169857fe5b9060200101907effffffffffffffffffffffffffffffffffffffffffffffffffffffffffffff1916908160001a9053508080600101915050611622565b600090505b855181101561178d5785818151811015156116f157fe5b9060200101517f010000000000000000000000000000000000000000000000000000000000000090047f010000000000000000000000000000000000000000000000000000000000000002838380600101945081518110151561175057fe5b9060200101907effffffffffffffffffffffffffffffffffffffffffffffffffffffffffffff1916908160001a90535080806001019150506116da565b600090505b84518110156118455784818151811015156117a957fe5b9060200101517f010000000000000000000000000000000000000000000000000000000000000090047f010000000000000000000000000000000000000000000000000000000000000002838380600101945081518110151561180857fe5b9060200101907effffffffffffffffffffffffffffffffffffffffffffffffffffffffffffff1916908160001a9053508080600101915050611792565b829950505050505050505050959450505050505600a165627a7a7230582072f793ec93697c91e7f576f6d2a5d511c748db0a9b81792dabd9b4e3404b02100029",
  "source": "pragma solidity ^0.4.24;\n\nimport \"../node_modules/zeppelin-solidity/contracts/ownership/Ownable.sol\";\nimport \"./Factory.sol\";\nimport \"./Cryptotickets.sol\";\nimport \"./Strings.sol\";\nimport \"./ProxyRegistry.sol\";\n\ncontract TicketsFactory is Factory, Ownable {\n    using Strings for string;\n\n    address public proxyRegistryAddress;\n    address public nftAddress;\n    string public baseURI = \"https://nuefwqsdv3.execute-api.us-east-1.amazonaws.com/testing/cryptotickets/\";\n\n  /**\n   * Enforce the existence of only 100 OpenSea creatures.\n   */\n    uint256 TICKETS_SUPPLY = 100;\n\n  /**\n   * Three different options for minting Creatures (basic, premium, and gold).\n   */\n    uint256 NUM_OPTIONS = 3;\n    uint256 SINGLE_TICKETS_OPTION = 0;\n    uint256 MULTIPLE_TICKETS_OPTION = 1;\n    uint256 NUM_TICKETS_IN_MULTIPLE_TICKETS_OPTION = 4;\n\n    constructor(address _proxyRegistryAddress, address _nftAddress) public {\n        proxyRegistryAddress = _proxyRegistryAddress;\n        nftAddress = _nftAddress;\n    }\n\n    function name() external view returns (string) {\n        return \"Cryptotickets Item Sale\";\n    }\n\n    function symbol() external view returns (string) {\n        return \"CTF\";\n    }\n\n    function supportsFactoryInterface() public view returns (bool) {\n        return true;\n    }\n\n    function numOptions() public view returns (uint256) {\n        return NUM_OPTIONS;\n    }\n  \n    function mint(uint256 _optionId, address _toAddress) public {\n        // Must be sent from the owner proxy or owner.\n        ProxyRegistry proxyRegistry = ProxyRegistry(proxyRegistryAddress);\n        \n        assert(proxyRegistry.proxies(owner) == msg.sender || owner == msg.sender);\n        require(canMint(_optionId));\n    \n        Cryptotickets cryptoticket = Cryptotickets(nftAddress);\n        if (_optionId == SINGLE_TICKETS_OPTION) {\n            cryptoticket.mintTo(_toAddress);\n        } else if (_optionId == MULTIPLE_TICKETS_OPTION) {\n            for (uint256 i = 0; i < NUM_TICKETS_IN_MULTIPLE_TICKETS_OPTION; i++) {\n                cryptoticket.mintTo(_toAddress);\n            }\n        } \n    }\n\n    function canMint(uint256 _optionId) public view returns (bool) {\n        if (_optionId >= NUM_OPTIONS) {\n            return false;\n        }\n\n        Cryptotickets cryptoticket = Cryptotickets(nftAddress);\n        uint256 ticketSupply = cryptoticket.totalSupply();\n\n        uint256 numItemsAllocated = 0;\n        if (_optionId == SINGLE_TICKETS_OPTION) {\n            numItemsAllocated = 1;\n        } else if (_optionId == MULTIPLE_TICKETS_OPTION) {\n            numItemsAllocated = NUM_TICKETS_IN_MULTIPLE_TICKETS_OPTION;\n        } \n        return ticketSupply < (TICKETS_SUPPLY - numItemsAllocated);\n    }\n  \n    function tokenURI(uint256 _optionId) public view returns (string) {\n        return Strings.strConcat(\n            baseURI,\n            Strings.uint2str(_optionId)\n        );\n    }\n\n  /**\n   * Hack to get things to work automatically on OpenSea.\n   * Use transferFrom so the frontend doesn't have to worry about different method names.\n   */\n    function transferFrom(address _from, address _to, uint256 _tokenId) public {\n        mint(_tokenId, _to);\n    }\n\n  /**\n   * Hack to get things to work automatically on OpenSea.\n   * Use isApprovedForAll so the frontend doesn't have to worry about different method names.\n   */\n    function isApprovedForAll(\n        address _owner,\n        address _operator\n        )\n        public\n        view\n        returns (bool)\n        {\n        if (owner == _owner && _owner == _operator) {\n            return true;\n        }\n\n        ProxyRegistry proxyRegistry = ProxyRegistry(proxyRegistryAddress);\n        if (owner == _owner && proxyRegistry.proxies(_owner) == _operator) {\n            return true;\n        }\n\n        return false;\n    }\n\n  /**\n   * Hack to get things to work automatically on OpenSea.\n   * Use isApprovedForAll so the frontend doesn't have to worry about different method names.\n   */\n    function ownerOf(uint256 _tokenId) public view returns (address _owner) {\n        return owner;\n    }\n}",
  "sourcePath": "/Users/fboyd/Documents/projects/cryptotickets/backend/contracts/TicketsFactory.sol",
  "compiler": {
    "name": "solc",
    "version": "0.4.24+commit.e67f0147.Emscripten.clang"
  },
  "schemaVersion": "3.0.0",
  "updatedAt": "2019-01-05T16:27:02.908Z",
  "devdoc": {
    "methods": {
      "renounceOwnership()": {
        "details": "Allows the current owner to relinquish control of the contract."
      },
      "transferOwnership(address)": {
        "details": "Allows the current owner to transfer control of the contract to a newOwner.",
        "params": {
          "_newOwner": "The address to transfer ownership to."
        }
      }
    }
  },
  "userdoc": {
    "methods": {
      "isApprovedForAll(address,address)": {
        "notice": "Hack to get things to work automatically on OpenSea. Use isApprovedForAll so the frontend doesn't have to worry about different method names."
      },
      "ownerOf(uint256)": {
        "notice": "Hack to get things to work automatically on OpenSea. Use isApprovedForAll so the frontend doesn't have to worry about different method names."
      },
      "renounceOwnership()": {
        "notice": "Renouncing to ownership will leave the contract without an owner. It will not be possible to call the functions with the `onlyOwner` modifier anymore."
      },
      "transferFrom(address,address,uint256)": {
        "notice": "Hack to get things to work automatically on OpenSea. Use transferFrom so the frontend doesn't have to worry about different method names."
      }
    }
  }
}