{
  "contractName": "TicketsFactory",
  "abi": [
    {
      "constant": true,
      "inputs": [],
      "name": "nftAddress",
      "outputs": [
        {
          "name": "",
          "type": "address"
        }
      ],
      "payable": false,
      "stateMutability": "view",
      "type": "function"
    },
    {
      "constant": true,
      "inputs": [],
      "name": "baseURI",
      "outputs": [
        {
          "name": "",
          "type": "string"
        }
      ],
      "payable": false,
      "stateMutability": "view",
      "type": "function"
    },
    {
      "constant": false,
      "inputs": [],
      "name": "renounceOwnership",
      "outputs": [],
      "payable": false,
      "stateMutability": "nonpayable",
      "type": "function"
    },
    {
      "constant": true,
      "inputs": [
        {
          "name": "",
          "type": "uint256"
        }
      ],
      "name": "lastAPIEventId",
      "outputs": [
        {
          "name": "",
          "type": "uint256"
        }
      ],
      "payable": false,
      "stateMutability": "view",
      "type": "function"
    },
    {
      "constant": true,
      "inputs": [],
      "name": "owner",
      "outputs": [
        {
          "name": "",
          "type": "address"
        }
      ],
      "payable": false,
      "stateMutability": "view",
      "type": "function"
    },
    {
      "constant": true,
      "inputs": [],
      "name": "proxyRegistryAddress",
      "outputs": [
        {
          "name": "",
          "type": "address"
        }
      ],
      "payable": false,
      "stateMutability": "view",
      "type": "function"
    },
    {
      "constant": false,
      "inputs": [
        {
          "name": "_newOwner",
          "type": "address"
        }
      ],
      "name": "transferOwnership",
      "outputs": [],
      "payable": false,
      "stateMutability": "nonpayable",
      "type": "function"
    },
    {
      "inputs": [
        {
          "name": "_proxyRegistryAddress",
          "type": "address"
        },
        {
          "name": "_nftAddress",
          "type": "address"
        }
      ],
      "payable": false,
      "stateMutability": "nonpayable",
      "type": "constructor"
    },
    {
      "anonymous": false,
      "inputs": [
        {
          "indexed": true,
          "name": "previousOwner",
          "type": "address"
        }
      ],
      "name": "OwnershipRenounced",
      "type": "event"
    },
    {
      "anonymous": false,
      "inputs": [
        {
          "indexed": true,
          "name": "previousOwner",
          "type": "address"
        },
        {
          "indexed": true,
          "name": "newOwner",
          "type": "address"
        }
      ],
      "name": "OwnershipTransferred",
      "type": "event"
    },
    {
      "constant": true,
      "inputs": [],
      "name": "name",
      "outputs": [
        {
          "name": "",
          "type": "string"
        }
      ],
      "payable": false,
      "stateMutability": "view",
      "type": "function"
    },
    {
      "constant": true,
      "inputs": [],
      "name": "symbol",
      "outputs": [
        {
          "name": "",
          "type": "string"
        }
      ],
      "payable": false,
      "stateMutability": "view",
      "type": "function"
    },
    {
      "constant": true,
      "inputs": [],
      "name": "supportsFactoryInterface",
      "outputs": [
        {
          "name": "",
          "type": "bool"
        }
      ],
      "payable": false,
      "stateMutability": "view",
      "type": "function"
    },
    {
      "constant": true,
      "inputs": [],
      "name": "numOptions",
      "outputs": [
        {
          "name": "",
          "type": "uint256"
        }
      ],
      "payable": false,
      "stateMutability": "view",
      "type": "function"
    },
    {
      "constant": false,
      "inputs": [
        {
          "name": "_optionId",
          "type": "uint256"
        },
        {
          "name": "_toAddress",
          "type": "address"
        }
      ],
      "name": "mint",
      "outputs": [],
      "payable": false,
      "stateMutability": "nonpayable",
      "type": "function"
    },
    {
      "constant": true,
      "inputs": [
        {
          "name": "_optionId",
          "type": "uint256"
        }
      ],
      "name": "canMint",
      "outputs": [
        {
          "name": "",
          "type": "bool"
        }
      ],
      "payable": false,
      "stateMutability": "view",
      "type": "function"
    },
    {
      "constant": true,
      "inputs": [
        {
          "name": "_optionId",
          "type": "uint256"
        }
      ],
      "name": "tokenURI",
      "outputs": [
        {
          "name": "",
          "type": "string"
        }
      ],
      "payable": false,
      "stateMutability": "view",
      "type": "function"
    },
    {
      "constant": false,
      "inputs": [
        {
          "name": "_id",
          "type": "string"
        },
        {
          "name": "_optionId",
          "type": "uint256"
        },
        {
          "name": "_owner",
          "type": "address"
        }
      ],
      "name": "createEvent",
      "outputs": [],
      "payable": false,
      "stateMutability": "nonpayable",
      "type": "function"
    },
    {
      "constant": true,
      "inputs": [
        {
          "name": "_id",
          "type": "string"
        }
      ],
      "name": "getEvent",
      "outputs": [
        {
          "name": "",
          "type": "string"
        }
      ],
      "payable": false,
      "stateMutability": "view",
      "type": "function"
    },
    {
      "constant": false,
      "inputs": [
        {
          "name": "_optionId",
          "type": "uint256"
        },
        {
          "name": "_lastAPIeventId",
          "type": "uint256"
        }
      ],
      "name": "collectTicketsReceivable",
      "outputs": [
        {
          "name": "",
          "type": "uint256"
        }
      ],
      "payable": false,
      "stateMutability": "nonpayable",
      "type": "function"
    },
    {
      "constant": true,
      "inputs": [
        {
          "name": "_optionId",
          "type": "uint256"
        }
      ],
      "name": "getTicketsReceivableAmount",
      "outputs": [
        {
          "name": "",
          "type": "uint256"
        }
      ],
      "payable": false,
      "stateMutability": "view",
      "type": "function"
    },
    {
      "constant": true,
      "inputs": [
        {
          "name": "_id",
          "type": "string"
        }
      ],
      "name": "getEventOption",
      "outputs": [
        {
          "name": "",
          "type": "uint256"
        }
      ],
      "payable": false,
      "stateMutability": "view",
      "type": "function"
    },
    {
      "constant": false,
      "inputs": [
        {
          "name": "_from",
          "type": "address"
        },
        {
          "name": "_to",
          "type": "address"
        },
        {
          "name": "_tokenId",
          "type": "uint256"
        }
      ],
      "name": "transferFrom",
      "outputs": [],
      "payable": false,
      "stateMutability": "nonpayable",
      "type": "function"
    },
    {
      "constant": true,
      "inputs": [
        {
          "name": "_owner",
          "type": "address"
        },
        {
          "name": "_operator",
          "type": "address"
        }
      ],
      "name": "isApprovedForAll",
      "outputs": [
        {
          "name": "",
          "type": "bool"
        }
      ],
      "payable": false,
      "stateMutability": "view",
      "type": "function"
    },
    {
      "constant": true,
      "inputs": [
        {
          "name": "_tokenId",
          "type": "uint256"
        }
      ],
      "name": "ownerOf",
      "outputs": [
        {
          "name": "_owner",
          "type": "address"
        }
      ],
      "payable": false,
      "stateMutability": "view",
      "type": "function"
    }
  ],
  "bytecode": "0x6080604052608060405190810160405280604d81526020017f68747470733a2f2f6e7565667771736476332e657865637574652d6170692e7581526020017f732d656173742d312e616d617a6f6e6177732e636f6d2f74657374696e672f6381526020017f727970746f7469636b6574732f00000000000000000000000000000000000000815250600390805190602001906200009e929190620001b2565b506064600855600780549050600955348015620000ba57600080fd5b50604051604080620023088339810180604052810190808051906020019092919080519060200190929190505050336000806101000a81548173ffffffffffffffffffffffffffffffffffffffff021916908373ffffffffffffffffffffffffffffffffffffffff16021790555081600160006101000a81548173ffffffffffffffffffffffffffffffffffffffff021916908373ffffffffffffffffffffffffffffffffffffffff16021790555080600260006101000a81548173ffffffffffffffffffffffffffffffffffffffff021916908373ffffffffffffffffffffffffffffffffffffffff160217905550505062000261565b828054600181600116156101000203166002900490600052602060002090601f016020900481019282601f10620001f557805160ff191683800117855562000226565b8280016001018555821562000226579182015b828111156200022557825182559160200191906001019062000208565b5b50905062000235919062000239565b5090565b6200025e91905b808211156200025a57600081600090555060010162000240565b5090565b90565b61209780620002716000396000f300608060405260043610610128576000357c0100000000000000000000000000000000000000000000000000000000900463ffffffff16806306fdde031461012d57806323b872dd146101bd578063270235bd1461022a5780634b97aed9146102bd5780634e5d6d09146102e85780635bf8633a146103335780635dd871a31461038a5780636352211e146103cf5780636c0360eb1461043c578063715018a6146104cc5780638a5d61f6146104e35780638da5cb5b1461052457806394bf804d1461057b57806395d89b41146105c8578063c311c52314610658578063c53739ff14610687578063c87b56dd14610704578063cd7c0326146107aa578063e190206314610801578063e985e9c5146108e3578063f1b3b9a51461095e578063f2fde38b1461099f575b600080fd5b34801561013957600080fd5b506101426109e2565b6040518080602001828103825283818151815260200191508051906020019080838360005b83811015610182578082015181840152602081019050610167565b50505050905090810190601f1680156101af5780820380516001836020036101000a031916815260200191505b509250505060405180910390f35b3480156101c957600080fd5b50610228600480360381019080803573ffffffffffffffffffffffffffffffffffffffff169060200190929190803573ffffffffffffffffffffffffffffffffffffffff16906020019092919080359060200190929190505050610a1f565b005b34801561023657600080fd5b506102bb600480360381019080803590602001908201803590602001908080601f016020809104026020016040519081016040528093929190818152602001838380828437820191505050505050919291929080359060200190929190803573ffffffffffffffffffffffffffffffffffffffff169060200190929190505050610a2e565b005b3480156102c957600080fd5b506102d2610b16565b6040518082815260200191505060405180910390f35b3480156102f457600080fd5b5061031d6004803603810190808035906020019092919080359060200190929190505050610b20565b6040518082815260200191505060405180910390f35b34801561033f57600080fd5b50610348610c4c565b604051808273ffffffffffffffffffffffffffffffffffffffff1673ffffffffffffffffffffffffffffffffffffffff16815260200191505060405180910390f35b34801561039657600080fd5b506103b560048036038101908080359060200190929190505050610c72565b604051808215151515815260200191505060405180910390f35b3480156103db57600080fd5b506103fa60048036038101908080359060200190929190505050610d91565b604051808273ffffffffffffffffffffffffffffffffffffffff1673ffffffffffffffffffffffffffffffffffffffff16815260200191505060405180910390f35b34801561044857600080fd5b50610451610dbc565b6040518080602001828103825283818151815260200191508051906020019080838360005b83811015610491578082015181840152602081019050610476565b50505050905090810190601f1680156104be5780820380516001836020036101000a031916815260200191505b509250505060405180910390f35b3480156104d857600080fd5b506104e1610e5a565b005b3480156104ef57600080fd5b5061050e60048036038101908080359060200190929190505050610f5c565b6040518082815260200191505060405180910390f35b34801561053057600080fd5b50610539610f74565b604051808273ffffffffffffffffffffffffffffffffffffffff1673ffffffffffffffffffffffffffffffffffffffff16815260200191505060405180910390f35b34801561058757600080fd5b506105c660048036038101908080359060200190929190803573ffffffffffffffffffffffffffffffffffffffff169060200190929190505050610f99565b005b3480156105d457600080fd5b506105dd611265565b6040518080602001828103825283818151815260200191508051906020019080838360005b8381101561061d578082015181840152602081019050610602565b50505050905090810190601f16801561064a5780820380516001836020036101000a031916815260200191505b509250505060405180910390f35b34801561066457600080fd5b5061066d6112a2565b604051808215151515815260200191505060405180910390f35b34801561069357600080fd5b506106ee600480360381019080803590602001908201803590602001908080601f01602080910402602001604051908101604052809392919081815260200183838082843782019150505050505091929192905050506112ab565b6040518082815260200191505060405180910390f35b34801561071057600080fd5b5061072f600480360381019080803590602001909291905050506113d5565b6040518080602001828103825283818151815260200191508051906020019080838360005b8381101561076f578082015181840152602081019050610754565b50505050905090810190601f16801561079c5780820380516001836020036101000a031916815260200191505b509250505060405180910390f35b3480156107b657600080fd5b506107bf611578565b604051808273ffffffffffffffffffffffffffffffffffffffff1673ffffffffffffffffffffffffffffffffffffffff16815260200191505060405180910390f35b34801561080d57600080fd5b50610868600480360381019080803590602001908201803590602001908080601f016020809104026020016040519081016040528093929190818152602001838380828437820191505050505050919291929050505061159e565b6040518080602001828103825283818151815260200191508051906020019080838360005b838110156108a857808201518184015260208101905061088d565b50505050905090810190601f1680156108d55780820380516001836020036101000a031916815260200191505b509250505060405180910390f35b3480156108ef57600080fd5b50610944600480360381019080803573ffffffffffffffffffffffffffffffffffffffff169060200190929190803573ffffffffffffffffffffffffffffffffffffffff1690602001909291905050506117b9565b604051808215151515815260200191505060405180910390f35b34801561096a57600080fd5b50610989600480360381019080803590602001909291905050506119ec565b6040518082815260200191505060405180910390f35b3480156109ab57600080fd5b506109e0600480360381019080803573ffffffffffffffffffffffffffffffffffffffff169060200190929190505050611a09565b005b60606040805190810160405280601781526020017f43727970746f7469636b657473204974656d2053616c65000000000000000000815250905090565b610a298183610f99565b505050565b6007604080519081016040528085815260200160011515815250908060018154018082558091505090600182039060005260206000209060020201600090919290919091506000820151816000019080519060200190610a8f929190611fc6565b5060208201518160010160006101000a81548160ff021916908315150217905550505050600160095401600981905550806005600084815260200190815260200160002060006101000a81548173ffffffffffffffffffffffffffffffffffffffff021916908373ffffffffffffffffffffffffffffffffffffffff160217905550505050565b6000600954905090565b6000806005600085815260200190815260200160002060009054906101000a900473ffffffffffffffffffffffffffffffffffffffff168073ffffffffffffffffffffffffffffffffffffffff163373ffffffffffffffffffffffffffffffffffffffff16141515610bfa576040517f08c379a000000000000000000000000000000000000000000000000000000000815260040180806020018281038252601b8152602001807f6f6e6c79206576656e74206f776e65722063616e20616363657373000000000081525060200191505060405180910390fd5b6004600086815260200190815260200160002054915060006004600087815260200190815260200160002081905550836006600087815260200190815260200160002081905550819250505092915050565b600260009054906101000a900473ffffffffffffffffffffffffffffffffffffffff1681565b600080600080600785815481101515610c8757fe5b906000526020600020906002020160010160009054906101000a900460ff161515610cb55760009350610d89565b600260009054906101000a900473ffffffffffffffffffffffffffffffffffffffff1692508273ffffffffffffffffffffffffffffffffffffffff166318160ddd6040518163ffffffff167c0100000000000000000000000000000000000000000000000000000000028152600401602060405180830381600087803b158015610d3e57600080fd5b505af1158015610d52573d6000803e3d6000fd5b505050506040513d6020811015610d6857600080fd5b81019080805190602001909291905050509150600190508060085403821093505b505050919050565b60008060009054906101000a900473ffffffffffffffffffffffffffffffffffffffff169050919050565b60038054600181600116156101000203166002900480601f016020809104026020016040519081016040528092919081815260200182805460018160011615610100020316600290048015610e525780601f10610e2757610100808354040283529160200191610e52565b820191906000526020600020905b815481529060010190602001808311610e3557829003601f168201915b505050505081565b6000809054906101000a900473ffffffffffffffffffffffffffffffffffffffff1673ffffffffffffffffffffffffffffffffffffffff163373ffffffffffffffffffffffffffffffffffffffff16141515610eb557600080fd5b6000809054906101000a900473ffffffffffffffffffffffffffffffffffffffff1673ffffffffffffffffffffffffffffffffffffffff167ff8df31144d9c2f0f6b59d69b8b98abd5459d07f2742c4df920b25aae33c6482060405160405180910390a260008060006101000a81548173ffffffffffffffffffffffffffffffffffffffff021916908373ffffffffffffffffffffffffffffffffffffffff160217905550565b60066020528060005260406000206000915090505481565b6000809054906101000a900473ffffffffffffffffffffffffffffffffffffffff1681565b600080600160009054906101000a900473ffffffffffffffffffffffffffffffffffffffff1691503373ffffffffffffffffffffffffffffffffffffffff168273ffffffffffffffffffffffffffffffffffffffff1663c45527916000809054906101000a900473ffffffffffffffffffffffffffffffffffffffff166040518263ffffffff167c0100000000000000000000000000000000000000000000000000000000028152600401808273ffffffffffffffffffffffffffffffffffffffff1673ffffffffffffffffffffffffffffffffffffffff168152602001915050602060405180830381600087803b15801561109457600080fd5b505af11580156110a8573d6000803e3d6000fd5b505050506040513d60208110156110be57600080fd5b810190808051906020019092919050505073ffffffffffffffffffffffffffffffffffffffff16148061113d57503373ffffffffffffffffffffffffffffffffffffffff166000809054906101000a900473ffffffffffffffffffffffffffffffffffffffff1673ffffffffffffffffffffffffffffffffffffffff16145b151561114557fe5b61114e84610c72565b151561115957600080fd5b600260009054906101000a900473ffffffffffffffffffffffffffffffffffffffff169050600160046000868152602001908152602001600020540160046000868152602001908152602001600020819055508073ffffffffffffffffffffffffffffffffffffffff1663755edd17846040518263ffffffff167c0100000000000000000000000000000000000000000000000000000000028152600401808273ffffffffffffffffffffffffffffffffffffffff1673ffffffffffffffffffffffffffffffffffffffff168152602001915050600060405180830381600087803b15801561124757600080fd5b505af115801561125b573d6000803e3d6000fd5b5050505050505050565b60606040805190810160405280600381526020017f4354460000000000000000000000000000000000000000000000000000000000815250905090565b60006001905090565b60008060008090505b6007805490508110156113cb57836040518082805190602001908083835b6020831015156112f757805182526020820191506020810190506020830392506112d2565b6001836020036101000a03801982511681845116808217855250505050505090500191505060405180910390206000191660078281548110151561133757fe5b906000526020600020906002020160000160405180828054600181600116156101000203166002900480156113a35780601f106113815761010080835404028352918201916113a3565b820191906000526020600020905b81548152906001019060200180831161138f575b505091505060405180910390206000191614156113be578091505b80806001019150506112b4565b8192505050919050565b6060806007838154811015156113e757fe5b906000526020600020906002020160010160009054906101000a900460ff16151561141157600080fd5b60078381548110151561142057fe5b90600052602060002090600202016000018054600181600116156101000203166002900480601f0160208091040260200160405190810160405280929190818152602001828054600181600116156101000203166002900480156114c55780601f1061149a576101008083540402835291602001916114c5565b820191906000526020600020905b8154815290600101906020018083116114a857829003601f168201915b5050505050905061157060038054600181600116156101000203166002900480601f0160208091040260200160405190810160405280929190818152602001828054600181600116156101000203166002900480156115655780601f1061153a57610100808354040283529160200191611565565b820191906000526020600020905b81548152906001019060200180831161154857829003601f168201915b505050505082611a70565b915050919050565b600160009054906101000a900473ffffffffffffffffffffffffffffffffffffffff1681565b60608060006040805190810160405280600481526020017f6e6f6e65000000000000000000000000000000000000000000000000000000008152509150600090505b6007805490508110156117af57836040518082805190602001908083835b60208310151561162357805182526020820191506020810190506020830392506115fe565b6001836020036101000a03801982511681845116808217855250505050505090500191505060405180910390206000191660078281548110151561166357fe5b906000526020600020906002020160000160405180828054600181600116156101000203166002900480156116cf5780601f106116ad5761010080835404028352918201916116cf565b820191906000526020600020905b8154815290600101906020018083116116bb575b505091505060405180910390206000191614156117a2576007818154811015156116f557fe5b90600052602060002090600202016000018054600181600116156101000203166002900480601f01602080910402602001604051908101604052809291908181526020018280546001816001161561010002031660029004801561179a5780601f1061176f5761010080835404028352916020019161179a565b820191906000526020600020905b81548152906001019060200180831161177d57829003601f168201915b505050505091505b80806001019150506115e0565b8192505050919050565b6000808373ffffffffffffffffffffffffffffffffffffffff166000809054906101000a900473ffffffffffffffffffffffffffffffffffffffff1673ffffffffffffffffffffffffffffffffffffffff1614801561184357508273ffffffffffffffffffffffffffffffffffffffff168473ffffffffffffffffffffffffffffffffffffffff16145b1561185157600191506119e5565b600160009054906101000a900473ffffffffffffffffffffffffffffffffffffffff1690508373ffffffffffffffffffffffffffffffffffffffff166000809054906101000a900473ffffffffffffffffffffffffffffffffffffffff1673ffffffffffffffffffffffffffffffffffffffff161480156119d257508273ffffffffffffffffffffffffffffffffffffffff168173ffffffffffffffffffffffffffffffffffffffff1663c4552791866040518263ffffffff167c0100000000000000000000000000000000000000000000000000000000028152600401808273ffffffffffffffffffffffffffffffffffffffff1673ffffffffffffffffffffffffffffffffffffffff168152602001915050602060405180830381600087803b15801561197f57600080fd5b505af1158015611993573d6000803e3d6000fd5b505050506040513d60208110156119a957600080fd5b810190808051906020019092919050505073ffffffffffffffffffffffffffffffffffffffff16145b156119e057600191506119e5565b600091505b5092915050565b600060046000838152602001908152602001600020549050919050565b6000809054906101000a900473ffffffffffffffffffffffffffffffffffffffff1673ffffffffffffffffffffffffffffffffffffffff163373ffffffffffffffffffffffffffffffffffffffff16141515611a6457600080fd5b611a6d81611ab7565b50565b6060611aaf8383602060405190810160405280600081525060206040519081016040528060008152506020604051908101604052806000815250611bb1565b905092915050565b600073ffffffffffffffffffffffffffffffffffffffff168173ffffffffffffffffffffffffffffffffffffffff1614151515611af357600080fd5b8073ffffffffffffffffffffffffffffffffffffffff166000809054906101000a900473ffffffffffffffffffffffffffffffffffffffff1673ffffffffffffffffffffffffffffffffffffffff167f8be0079c531659141344cd1fd0a4f28419497f9722a3daafe3b4186f6b6457e060405160405180910390a3806000806101000a81548173ffffffffffffffffffffffffffffffffffffffff021916908373ffffffffffffffffffffffffffffffffffffffff16021790555050565b6060806060806060806060806000808e98508d97508c96508b95508a94508451865188518a518c51010101016040519080825280601f01601f191660200182016040528015611c0f5781602001602082028038833980820191505090505b50935083925060009150600090505b8851811015611cd1578881815181101515611c3557fe5b9060200101517f010000000000000000000000000000000000000000000000000000000000000090047f0100000000000000000000000000000000000000000000000000000000000000028383806001019450815181101515611c9457fe5b9060200101907effffffffffffffffffffffffffffffffffffffffffffffffffffffffffffff1916908160001a9053508080600101915050611c1e565b600090505b8751811015611d89578781815181101515611ced57fe5b9060200101517f010000000000000000000000000000000000000000000000000000000000000090047f0100000000000000000000000000000000000000000000000000000000000000028383806001019450815181101515611d4c57fe5b9060200101907effffffffffffffffffffffffffffffffffffffffffffffffffffffffffffff1916908160001a9053508080600101915050611cd6565b600090505b8651811015611e41578681815181101515611da557fe5b9060200101517f010000000000000000000000000000000000000000000000000000000000000090047f0100000000000000000000000000000000000000000000000000000000000000028383806001019450815181101515611e0457fe5b9060200101907effffffffffffffffffffffffffffffffffffffffffffffffffffffffffffff1916908160001a9053508080600101915050611d8e565b600090505b8551811015611ef9578581815181101515611e5d57fe5b9060200101517f010000000000000000000000000000000000000000000000000000000000000090047f0100000000000000000000000000000000000000000000000000000000000000028383806001019450815181101515611ebc57fe5b9060200101907effffffffffffffffffffffffffffffffffffffffffffffffffffffffffffff1916908160001a9053508080600101915050611e46565b600090505b8451811015611fb1578481815181101515611f1557fe5b9060200101517f010000000000000000000000000000000000000000000000000000000000000090047f0100000000000000000000000000000000000000000000000000000000000000028383806001019450815181101515611f7457fe5b9060200101907effffffffffffffffffffffffffffffffffffffffffffffffffffffffffffff1916908160001a9053508080600101915050611efe565b82995050505050505050505095945050505050565b828054600181600116156101000203166002900490600052602060002090601f016020900481019282601f1061200757805160ff1916838001178555612035565b82800160010185558215612035579182015b82811115612034578251825591602001919060010190612019565b5b5090506120429190612046565b5090565b61206891905b8082111561206457600081600090555060010161204c565b5090565b905600a165627a7a723058209910dceac7652d5169a69ff93355cd70df27e532ecfb9f0e4cf261f23f8ccc460029",
  "source": "pragma solidity ^0.4.24;\r\n\r\nimport \"../node_modules/zeppelin-solidity/contracts/ownership/Ownable.sol\";\r\nimport \"./Factory.sol\";\r\nimport \"./Cryptotickets.sol\";\r\nimport \"./Strings.sol\";\r\nimport \"./ProxyRegistry.sol\";\r\n\r\ncontract TicketsFactory is Factory, Ownable {\r\n    using Strings for string;\r\n\r\n    address public proxyRegistryAddress;\r\n    address public nftAddress;\r\n    string public baseURI = \"https://nuefwqsdv3.execute-api.us-east-1.amazonaws.com/testing/cryptotickets/\";\r\n    mapping(uint256=>uint256) ticketsReceivable;\r\n    mapping(uint256=>address) eventToOwner;\r\n    mapping(uint256=>uint256) public lastAPIEventId;\r\n\r\n    struct Event{\r\n        string id;\r\n        bool exists;\r\n    }\r\n\r\n    Event[] events;\r\n  /**\r\n   * Enforce the existence of only 100 OpenSea Cryptotickets.\r\n   */\r\n    uint256 TICKETS_SUPPLY = 100;\r\n\r\n  /**\r\n   * Three different options for minting Creatures (basic, premium, and gold).\r\n   */\r\n    uint256 NUM_OPTIONS = events.length;\r\n    /*uint256 SINGLE_TICKETS_OPTION = 0;\r\n    uint256 MULTIPLE_TICKETS_OPTION = 1;\r\n    uint256 NUM_TICKETS_IN_MULTIPLE_TICKETS_OPTION = 4;*/\r\n\r\n    modifier eventOwner(address _address){\r\n        require(msg.sender == _address, \"only event owner can access\");\r\n        _;\r\n    }\r\n\r\n    constructor(address _proxyRegistryAddress, address _nftAddress) public {\r\n        proxyRegistryAddress = _proxyRegistryAddress;\r\n        nftAddress = _nftAddress;\r\n    }\r\n\r\n    function name() external view returns (string) {\r\n        return \"Cryptotickets Item Sale\";\r\n    }\r\n\r\n    function symbol() external view returns (string) {\r\n        return \"CTF\";\r\n    }\r\n\r\n    function supportsFactoryInterface() public view returns (bool) {\r\n        return true;\r\n    }\r\n\r\n    function numOptions() public view returns (uint256) {\r\n        return NUM_OPTIONS;\r\n    }\r\n\r\n   \r\n  \r\n    function mint(uint256 _optionId, address _toAddress) public {\r\n        // Must be sent from the owner proxy or owner.\r\n        ProxyRegistry proxyRegistry = ProxyRegistry(proxyRegistryAddress);\r\n        \r\n        assert(proxyRegistry.proxies(owner) == msg.sender || owner == msg.sender);\r\n        require(canMint(_optionId));\r\n    \r\n        Cryptotickets cryptoticket = Cryptotickets(nftAddress);\r\n        ticketsReceivable[_optionId] = ticketsReceivable[_optionId] + 1;\r\n        cryptoticket.mintTo(_toAddress);\r\n        \r\n    }\r\n\r\n    function canMint(uint256 _optionId) public view returns (bool) {\r\n\r\n       /* if (_optionId >= NUM_OPTIONS) {\r\n            return false;\r\n        }*/\r\n        if(!events[_optionId].exists){\r\n            return false;\r\n        }\r\n\r\n        Cryptotickets cryptoticket = Cryptotickets(nftAddress);\r\n        uint256 ticketSupply = cryptoticket.totalSupply();\r\n        uint256 numItemsAllocated = 1;\r\n        return ticketSupply < (TICKETS_SUPPLY - numItemsAllocated);\r\n    }\r\n  \r\n    function tokenURI(uint256 _optionId) public view returns (string) {\r\n        require(events[_optionId].exists);\r\n        string memory eventid = events[_optionId].id;\r\n        return Strings.strConcat(\r\n            baseURI,\r\n            //Strings.uint2str(eventid)\r\n            eventid\r\n        );\r\n    }\r\n\r\n    function createEvent(string _id, uint256 _optionId, address _owner) public {\r\n        events.push(Event(_id, true));\r\n        NUM_OPTIONS = NUM_OPTIONS + 1;\r\n        eventToOwner[_optionId] = _owner;\r\n    }\r\n\r\n\r\n    function getEvent(string _id) view public returns(string){\r\n        string memory evt = \"none\";\r\n        for(uint i = 0; i < events.length; i++){\r\n            if(keccak256(events[i].id) == keccak256(_id)){\r\n                evt = events[i].id;\r\n            }\r\n        }\r\n        return evt;\r\n    }\r\n\r\n\r\n    function collectTicketsReceivable(uint256 _optionId, uint256 _lastAPIeventId) public eventOwner(eventToOwner[_optionId]) returns(uint256){\r\n        uint256 amount = ticketsReceivable[_optionId];\r\n        ticketsReceivable[_optionId] = 0;\r\n        lastAPIEventId[_optionId] = _lastAPIeventId;\r\n        return amount;\r\n    }\r\n\r\n    function getTicketsReceivableAmount(uint256 _optionId) view public returns (uint256){\r\n        return ticketsReceivable[_optionId];\r\n    }\r\n\r\n    function getEventOption(string _id)view public returns(uint256){\r\n        uint256 eventid;\r\n        for(uint i = 0; i<events.length ; i++){\r\n            if(keccak256(events[i].id) == keccak256(_id)){\r\n                eventid = i;\r\n            }\r\n        }\r\n\r\n        return eventid;\r\n    }\r\n\r\n  /**\r\n   * Hack to get things to work automatically on OpenSea.\r\n   * Use transferFrom so the frontend doesn't have to worry about different method names.\r\n   */\r\n    function transferFrom(address _from, address _to, uint256 _tokenId) public {\r\n        mint(_tokenId, _to);\r\n    }\r\n\r\n  /**\r\n   * Hack to get things to work automatically on OpenSea.\r\n   * Use isApprovedForAll so the frontend doesn't have to worry about different method names.\r\n   */\r\n    function isApprovedForAll(\r\n        address _owner,\r\n        address _operator\r\n        )\r\n        public\r\n        view\r\n        returns (bool)\r\n        {\r\n        if (owner == _owner && _owner == _operator) {\r\n            return true;\r\n        }\r\n\r\n        ProxyRegistry proxyRegistry = ProxyRegistry(proxyRegistryAddress);\r\n        if (owner == _owner && proxyRegistry.proxies(_owner) == _operator) {\r\n            return true;\r\n        }\r\n\r\n        return false;\r\n    }\r\n\r\n  /**\r\n   * Hack to get things to work automatically on OpenSea.\r\n   * Use isApprovedForAll so the frontend doesn't have to worry about different method names.\r\n   */\r\n    function ownerOf(uint256 _tokenId) public view returns (address _owner) {\r\n        return owner;\r\n    }\r\n}",
  "sourcePath": "D:/cryptotickets/backend/contracts/TicketsFactory.sol",
  "compiler": {
    "name": "solc",
    "version": "0.4.24+commit.e67f0147.Emscripten.clang"
  },
  "schemaVersion": "3.4.1",
  "updatedAt": "2021-11-28T18:56:58.846Z",
  "devdoc": {
    "methods": {
      "renounceOwnership()": {
        "details": "Allows the current owner to relinquish control of the contract."
      },
      "transferOwnership(address)": {
        "details": "Allows the current owner to transfer control of the contract to a newOwner.",
        "params": {
          "_newOwner": "The address to transfer ownership to."
        }
      }
    }
  },
  "userdoc": {
    "methods": {
      "isApprovedForAll(address,address)": {
        "notice": "Hack to get things to work automatically on OpenSea.\r Use isApprovedForAll so the frontend doesn't have to worry about different method names.\r"
      },
      "ownerOf(uint256)": {
        "notice": "Hack to get things to work automatically on OpenSea.\r Use isApprovedForAll so the frontend doesn't have to worry about different method names.\r"
      },
      "renounceOwnership()": {
        "notice": "Renouncing to ownership will leave the contract without an owner. It will not be possible to call the functions with the `onlyOwner` modifier anymore."
      },
      "transferFrom(address,address,uint256)": {
        "notice": "Hack to get things to work automatically on OpenSea.\r Use transferFrom so the frontend doesn't have to worry about different method names.\r"
      }
    }
  }
}