{
  "contractName": "TicketsFactory",
  "abi": [
    {
      "constant": true,
      "inputs": [],
      "name": "nftAddress",
      "outputs": [
        {
          "name": "",
          "type": "address"
        }
      ],
      "payable": false,
      "stateMutability": "view",
      "type": "function"
    },
    {
      "constant": true,
      "inputs": [],
      "name": "baseURI",
      "outputs": [
        {
          "name": "",
          "type": "string"
        }
      ],
      "payable": false,
      "stateMutability": "view",
      "type": "function"
    },
    {
      "constant": false,
      "inputs": [],
      "name": "renounceOwnership",
      "outputs": [],
      "payable": false,
      "stateMutability": "nonpayable",
      "type": "function"
    },
    {
      "constant": true,
      "inputs": [],
      "name": "owner",
      "outputs": [
        {
          "name": "",
          "type": "address"
        }
      ],
      "payable": false,
      "stateMutability": "view",
      "type": "function"
    },
    {
      "constant": true,
      "inputs": [],
      "name": "proxyRegistryAddress",
      "outputs": [
        {
          "name": "",
          "type": "address"
        }
      ],
      "payable": false,
      "stateMutability": "view",
      "type": "function"
    },
    {
      "constant": false,
      "inputs": [
        {
          "name": "_newOwner",
          "type": "address"
        }
      ],
      "name": "transferOwnership",
      "outputs": [],
      "payable": false,
      "stateMutability": "nonpayable",
      "type": "function"
    },
    {
      "inputs": [
        {
          "name": "_proxyRegistryAddress",
          "type": "address"
        },
        {
          "name": "_nftAddress",
          "type": "address"
        }
      ],
      "payable": false,
      "stateMutability": "nonpayable",
      "type": "constructor"
    },
    {
      "anonymous": false,
      "inputs": [
        {
          "indexed": true,
          "name": "previousOwner",
          "type": "address"
        }
      ],
      "name": "OwnershipRenounced",
      "type": "event"
    },
    {
      "anonymous": false,
      "inputs": [
        {
          "indexed": true,
          "name": "previousOwner",
          "type": "address"
        },
        {
          "indexed": true,
          "name": "newOwner",
          "type": "address"
        }
      ],
      "name": "OwnershipTransferred",
      "type": "event"
    },
    {
      "constant": true,
      "inputs": [],
      "name": "name",
      "outputs": [
        {
          "name": "",
          "type": "string"
        }
      ],
      "payable": false,
      "stateMutability": "view",
      "type": "function"
    },
    {
      "constant": true,
      "inputs": [],
      "name": "symbol",
      "outputs": [
        {
          "name": "",
          "type": "string"
        }
      ],
      "payable": false,
      "stateMutability": "view",
      "type": "function"
    },
    {
      "constant": true,
      "inputs": [],
      "name": "supportsFactoryInterface",
      "outputs": [
        {
          "name": "",
          "type": "bool"
        }
      ],
      "payable": false,
      "stateMutability": "view",
      "type": "function"
    },
    {
      "constant": true,
      "inputs": [],
      "name": "numOptions",
      "outputs": [
        {
          "name": "",
          "type": "uint256"
        }
      ],
      "payable": false,
      "stateMutability": "view",
      "type": "function"
    },
    {
      "constant": false,
      "inputs": [
        {
          "name": "_optionId",
          "type": "uint256"
        },
        {
          "name": "_toAddress",
          "type": "address"
        }
      ],
      "name": "mint",
      "outputs": [],
      "payable": false,
      "stateMutability": "nonpayable",
      "type": "function"
    },
    {
      "constant": true,
      "inputs": [
        {
          "name": "_optionId",
          "type": "uint256"
        }
      ],
      "name": "canMint",
      "outputs": [
        {
          "name": "",
          "type": "bool"
        }
      ],
      "payable": false,
      "stateMutability": "view",
      "type": "function"
    },
    {
      "constant": true,
      "inputs": [
        {
          "name": "_optionId",
          "type": "uint256"
        }
      ],
      "name": "tokenURI",
      "outputs": [
        {
          "name": "",
          "type": "string"
        }
      ],
      "payable": false,
      "stateMutability": "view",
      "type": "function"
    },
    {
      "constant": false,
      "inputs": [
        {
          "name": "_from",
          "type": "address"
        },
        {
          "name": "_to",
          "type": "address"
        },
        {
          "name": "_tokenId",
          "type": "uint256"
        }
      ],
      "name": "transferFrom",
      "outputs": [],
      "payable": false,
      "stateMutability": "nonpayable",
      "type": "function"
    },
    {
      "constant": true,
      "inputs": [
        {
          "name": "_owner",
          "type": "address"
        },
        {
          "name": "_operator",
          "type": "address"
        }
      ],
      "name": "isApprovedForAll",
      "outputs": [
        {
          "name": "",
          "type": "bool"
        }
      ],
      "payable": false,
      "stateMutability": "view",
      "type": "function"
    },
    {
      "constant": true,
      "inputs": [
        {
          "name": "_tokenId",
          "type": "uint256"
        }
      ],
      "name": "ownerOf",
      "outputs": [
        {
          "name": "_owner",
          "type": "address"
        }
      ],
      "payable": false,
      "stateMutability": "view",
      "type": "function"
    }
  ],
  "bytecode": "0x6080604052608060405190810160405280604d81526020017f68747470733a2f2f6e7565667771736476332e657865637574652d6170692e7581526020017f732d656173742d312e616d617a6f6e6177732e636f6d2f74657374696e672f6381526020017f727970746f7469636b6574732f00000000000000000000000000000000000000815250600390805190602001906200009e929190620001bd565b5060646004556003600555600060065560016007556004600855348015620000c557600080fd5b5060405160408062001c868339810180604052810190808051906020019092919080519060200190929190505050336000806101000a81548173ffffffffffffffffffffffffffffffffffffffff021916908373ffffffffffffffffffffffffffffffffffffffff16021790555081600160006101000a81548173ffffffffffffffffffffffffffffffffffffffff021916908373ffffffffffffffffffffffffffffffffffffffff16021790555080600260006101000a81548173ffffffffffffffffffffffffffffffffffffffff021916908373ffffffffffffffffffffffffffffffffffffffff16021790555050506200026c565b828054600181600116156101000203166002900490600052602060002090601f016020900481019282601f106200020057805160ff191683800117855562000231565b8280016001018555821562000231579182015b828111156200023057825182559160200191906001019062000213565b5b50905062000240919062000244565b5090565b6200026991905b80821115620002655760008160009055506001016200024b565b5090565b90565b611a0a806200027c6000396000f3006080604052600436106100e6576000357c0100000000000000000000000000000000000000000000000000000000900463ffffffff16806306fdde03146100eb57806323b872dd1461017b5780634b97aed9146101e85780635bf8633a146102135780635dd871a31461026a5780636352211e146102af5780636c0360eb1461031c578063715018a6146103ac5780638da5cb5b146103c357806394bf804d1461041a57806395d89b4114610467578063c311c523146104f7578063c87b56dd14610526578063cd7c0326146105cc578063e985e9c514610623578063f2fde38b1461069e575b600080fd5b3480156100f757600080fd5b506101006106e1565b6040518080602001828103825283818151815260200191508051906020019080838360005b83811015610140578082015181840152602081019050610125565b50505050905090810190601f16801561016d5780820380516001836020036101000a031916815260200191505b509250505060405180910390f35b34801561018757600080fd5b506101e6600480360381019080803573ffffffffffffffffffffffffffffffffffffffff169060200190929190803573ffffffffffffffffffffffffffffffffffffffff1690602001909291908035906020019092919050505061071e565b005b3480156101f457600080fd5b506101fd61072d565b6040518082815260200191505060405180910390f35b34801561021f57600080fd5b50610228610737565b604051808273ffffffffffffffffffffffffffffffffffffffff1673ffffffffffffffffffffffffffffffffffffffff16815260200191505060405180910390f35b34801561027657600080fd5b506102956004803603810190808035906020019092919050505061075d565b604051808215151515815260200191505060405180910390f35b3480156102bb57600080fd5b506102da60048036038101908080359060200190929190505050610877565b604051808273ffffffffffffffffffffffffffffffffffffffff1673ffffffffffffffffffffffffffffffffffffffff16815260200191505060405180910390f35b34801561032857600080fd5b506103316108a2565b6040518080602001828103825283818151815260200191508051906020019080838360005b83811015610371578082015181840152602081019050610356565b50505050905090810190601f16801561039e5780820380516001836020036101000a031916815260200191505b509250505060405180910390f35b3480156103b857600080fd5b506103c1610940565b005b3480156103cf57600080fd5b506103d8610a42565b604051808273ffffffffffffffffffffffffffffffffffffffff1673ffffffffffffffffffffffffffffffffffffffff16815260200191505060405180910390f35b34801561042657600080fd5b5061046560048036038101908080359060200190929190803573ffffffffffffffffffffffffffffffffffffffff169060200190929190505050610a67565b005b34801561047357600080fd5b5061047c610f76565b6040518080602001828103825283818151815260200191508051906020019080838360005b838110156104bc5780820151818401526020810190506104a1565b50505050905090810190601f1680156104e95780820380516001836020036101000a031916815260200191505b509250505060405180910390f35b34801561050357600080fd5b5061050c610fb3565b604051808215151515815260200191505060405180910390f35b34801561053257600080fd5b5061055160048036038101908080359060200190929190505050610fbc565b6040518080602001828103825283818151815260200191508051906020019080838360005b83811015610591578082015181840152602081019050610576565b50505050905090810190601f1680156105be5780820380516001836020036101000a031916815260200191505b509250505060405180910390f35b3480156105d857600080fd5b506105e1611071565b604051808273ffffffffffffffffffffffffffffffffffffffff1673ffffffffffffffffffffffffffffffffffffffff16815260200191505060405180910390f35b34801561062f57600080fd5b50610684600480360381019080803573ffffffffffffffffffffffffffffffffffffffff169060200190929190803573ffffffffffffffffffffffffffffffffffffffff169060200190929190505050611097565b604051808215151515815260200191505060405180910390f35b3480156106aa57600080fd5b506106df600480360381019080803573ffffffffffffffffffffffffffffffffffffffff1690602001909291905050506112ca565b005b60606040805190810160405280601781526020017f43727970746f7469636b657473204974656d2053616c65000000000000000000815250905090565b6107288183610a67565b505050565b6000600554905090565b600260009054906101000a900473ffffffffffffffffffffffffffffffffffffffff1681565b60008060008060055485101515610777576000935061086f565b600260009054906101000a900473ffffffffffffffffffffffffffffffffffffffff1692508273ffffffffffffffffffffffffffffffffffffffff166318160ddd6040518163ffffffff167c0100000000000000000000000000000000000000000000000000000000028152600401602060405180830381600087803b15801561080057600080fd5b505af1158015610814573d6000803e3d6000fd5b505050506040513d602081101561082a57600080fd5b81019080805190602001909291905050509150600090506006548514156108545760019050610865565b6007548514156108645760085490505b5b8060045403821093505b505050919050565b60008060009054906101000a900473ffffffffffffffffffffffffffffffffffffffff169050919050565b60038054600181600116156101000203166002900480601f0160208091040260200160405190810160405280929190818152602001828054600181600116156101000203166002900480156109385780601f1061090d57610100808354040283529160200191610938565b820191906000526020600020905b81548152906001019060200180831161091b57829003601f168201915b505050505081565b6000809054906101000a900473ffffffffffffffffffffffffffffffffffffffff1673ffffffffffffffffffffffffffffffffffffffff163373ffffffffffffffffffffffffffffffffffffffff1614151561099b57600080fd5b6000809054906101000a900473ffffffffffffffffffffffffffffffffffffffff1673ffffffffffffffffffffffffffffffffffffffff167ff8df31144d9c2f0f6b59d69b8b98abd5459d07f2742c4df920b25aae33c6482060405160405180910390a260008060006101000a81548173ffffffffffffffffffffffffffffffffffffffff021916908373ffffffffffffffffffffffffffffffffffffffff160217905550565b6000809054906101000a900473ffffffffffffffffffffffffffffffffffffffff1681565b6000806000600160009054906101000a900473ffffffffffffffffffffffffffffffffffffffff1692503373ffffffffffffffffffffffffffffffffffffffff168373ffffffffffffffffffffffffffffffffffffffff1663c45527916000809054906101000a900473ffffffffffffffffffffffffffffffffffffffff166040518263ffffffff167c0100000000000000000000000000000000000000000000000000000000028152600401808273ffffffffffffffffffffffffffffffffffffffff1673ffffffffffffffffffffffffffffffffffffffff168152602001915050602060405180830381600087803b158015610b6457600080fd5b505af1158015610b78573d6000803e3d6000fd5b505050506040513d6020811015610b8e57600080fd5b810190808051906020019092919050505073ffffffffffffffffffffffffffffffffffffffff161480610c0d57503373ffffffffffffffffffffffffffffffffffffffff166000809054906101000a900473ffffffffffffffffffffffffffffffffffffffff1673ffffffffffffffffffffffffffffffffffffffff16145b1515610c1557fe5b3373ffffffffffffffffffffffffffffffffffffffff168373ffffffffffffffffffffffffffffffffffffffff1663c45527916000809054906101000a900473ffffffffffffffffffffffffffffffffffffffff166040518263ffffffff167c0100000000000000000000000000000000000000000000000000000000028152600401808273ffffffffffffffffffffffffffffffffffffffff1673ffffffffffffffffffffffffffffffffffffffff168152602001915050602060405180830381600087803b158015610ce857600080fd5b505af1158015610cfc573d6000803e3d6000fd5b505050506040513d6020811015610d1257600080fd5b810190808051906020019092919050505073ffffffffffffffffffffffffffffffffffffffff161480610d9157503373ffffffffffffffffffffffffffffffffffffffff166000809054906101000a900473ffffffffffffffffffffffffffffffffffffffff1673ffffffffffffffffffffffffffffffffffffffff16145b1515610d9957fe5b610da28561075d565b1515610dad57600080fd5b600260009054906101000a900473ffffffffffffffffffffffffffffffffffffffff169150600654851415610e94578173ffffffffffffffffffffffffffffffffffffffff1663755edd17856040518263ffffffff167c0100000000000000000000000000000000000000000000000000000000028152600401808273ffffffffffffffffffffffffffffffffffffffff1673ffffffffffffffffffffffffffffffffffffffff168152602001915050600060405180830381600087803b158015610e7757600080fd5b505af1158015610e8b573d6000803e3d6000fd5b50505050610f6f565b600754851415610f6e57600090505b600854811015610f6d578173ffffffffffffffffffffffffffffffffffffffff1663755edd17856040518263ffffffff167c0100000000000000000000000000000000000000000000000000000000028152600401808273ffffffffffffffffffffffffffffffffffffffff1673ffffffffffffffffffffffffffffffffffffffff168152602001915050600060405180830381600087803b158015610f4857600080fd5b505af1158015610f5c573d6000803e3d6000fd5b505050508080600101915050610ea3565b5b5b5050505050565b60606040805190810160405280600381526020017f4354460000000000000000000000000000000000000000000000000000000000815250905090565b60006001905090565b606061106a60038054600181600116156101000203166002900480601f0160208091040260200160405190810160405280929190818152602001828054600181600116156101000203166002900480156110575780601f1061102c57610100808354040283529160200191611057565b820191906000526020600020905b81548152906001019060200180831161103a57829003601f168201915b505050505061106584611331565b611488565b9050919050565b600160009054906101000a900473ffffffffffffffffffffffffffffffffffffffff1681565b6000808373ffffffffffffffffffffffffffffffffffffffff166000809054906101000a900473ffffffffffffffffffffffffffffffffffffffff1673ffffffffffffffffffffffffffffffffffffffff1614801561112157508273ffffffffffffffffffffffffffffffffffffffff168473ffffffffffffffffffffffffffffffffffffffff16145b1561112f57600191506112c3565b600160009054906101000a900473ffffffffffffffffffffffffffffffffffffffff1690508373ffffffffffffffffffffffffffffffffffffffff166000809054906101000a900473ffffffffffffffffffffffffffffffffffffffff1673ffffffffffffffffffffffffffffffffffffffff161480156112b057508273ffffffffffffffffffffffffffffffffffffffff168173ffffffffffffffffffffffffffffffffffffffff1663c4552791866040518263ffffffff167c0100000000000000000000000000000000000000000000000000000000028152600401808273ffffffffffffffffffffffffffffffffffffffff1673ffffffffffffffffffffffffffffffffffffffff168152602001915050602060405180830381600087803b15801561125d57600080fd5b505af1158015611271573d6000803e3d6000fd5b505050506040513d602081101561128757600080fd5b810190808051906020019092919050505073ffffffffffffffffffffffffffffffffffffffff16145b156112be57600191506112c3565b600091505b5092915050565b6000809054906101000a900473ffffffffffffffffffffffffffffffffffffffff1673ffffffffffffffffffffffffffffffffffffffff163373ffffffffffffffffffffffffffffffffffffffff1614151561132557600080fd5b61132e816114cf565b50565b6060600080606060008086141561137f576040805190810160405280600181526020017f3000000000000000000000000000000000000000000000000000000000000000815250945061147f565b8593505b6000841415156113a9578280600101935050600a848115156113a157fe5b049350611383565b826040519080825280601f01601f1916602001820160405280156113dc5781602001602082028038833980820191505090505b5091506001830390505b60008614151561147b57600a868115156113fc57fe5b066030017f01000000000000000000000000000000000000000000000000000000000000000282828060019003935081518110151561143757fe5b9060200101907effffffffffffffffffffffffffffffffffffffffffffffffffffffffffffff1916908160001a905350600a8681151561147357fe5b0495506113e6565b8194505b50505050919050565b60606114c783836020604051908101604052806000815250602060405190810160405280600081525060206040519081016040528060008152506115c9565b905092915050565b600073ffffffffffffffffffffffffffffffffffffffff168173ffffffffffffffffffffffffffffffffffffffff161415151561150b57600080fd5b8073ffffffffffffffffffffffffffffffffffffffff166000809054906101000a900473ffffffffffffffffffffffffffffffffffffffff1673ffffffffffffffffffffffffffffffffffffffff167f8be0079c531659141344cd1fd0a4f28419497f9722a3daafe3b4186f6b6457e060405160405180910390a3806000806101000a81548173ffffffffffffffffffffffffffffffffffffffff021916908373ffffffffffffffffffffffffffffffffffffffff16021790555050565b6060806060806060806060806000808e98508d97508c96508b95508a94508451865188518a518c51010101016040519080825280601f01601f1916602001820160405280156116275781602001602082028038833980820191505090505b50935083925060009150600090505b88518110156116e957888181518110151561164d57fe5b9060200101517f010000000000000000000000000000000000000000000000000000000000000090047f01000000000000000000000000000000000000000000000000000000000000000283838060010194508151811015156116ac57fe5b9060200101907effffffffffffffffffffffffffffffffffffffffffffffffffffffffffffff1916908160001a9053508080600101915050611636565b600090505b87518110156117a157878181518110151561170557fe5b9060200101517f010000000000000000000000000000000000000000000000000000000000000090047f010000000000000000000000000000000000000000000000000000000000000002838380600101945081518110151561176457fe5b9060200101907effffffffffffffffffffffffffffffffffffffffffffffffffffffffffffff1916908160001a90535080806001019150506116ee565b600090505b86518110156118595786818151811015156117bd57fe5b9060200101517f010000000000000000000000000000000000000000000000000000000000000090047f010000000000000000000000000000000000000000000000000000000000000002838380600101945081518110151561181c57fe5b9060200101907effffffffffffffffffffffffffffffffffffffffffffffffffffffffffffff1916908160001a90535080806001019150506117a6565b600090505b855181101561191157858181518110151561187557fe5b9060200101517f010000000000000000000000000000000000000000000000000000000000000090047f01000000000000000000000000000000000000000000000000000000000000000283838060010194508151811015156118d457fe5b9060200101907effffffffffffffffffffffffffffffffffffffffffffffffffffffffffffff1916908160001a905350808060010191505061185e565b600090505b84518110156119c957848181518110151561192d57fe5b9060200101517f010000000000000000000000000000000000000000000000000000000000000090047f010000000000000000000000000000000000000000000000000000000000000002838380600101945081518110151561198c57fe5b9060200101907effffffffffffffffffffffffffffffffffffffffffffffffffffffffffffff1916908160001a9053508080600101915050611916565b829950505050505050505050959450505050505600a165627a7a72305820ed97c7f01096677ded8f4e24b505bcd472e9e645879319b67eed471fbfe0c60a0029",
  "source": "pragma solidity ^0.4.24;\r\n\r\nimport \"../node_modules/zeppelin-solidity/contracts/ownership/Ownable.sol\";\r\nimport \"./Factory.sol\";\r\nimport \"./Cryptotickets.sol\";\r\nimport \"./Strings.sol\";\r\n\r\ncontract TicketsFactory is Factory, Ownable {\r\n    using Strings for string;\r\n\r\n    address public proxyRegistryAddress;\r\n    address public nftAddress;\r\n    string public baseURI = \"https://nuefwqsdv3.execute-api.us-east-1.amazonaws.com/testing/cryptotickets/\";\r\n\r\n  /**\r\n   * Enforce the existence of only 100 OpenSea creatures.\r\n   */\r\n    uint256 TICKETS_SUPPLY = 100;\r\n\r\n  /**\r\n   * Three different options for minting Creatures (basic, premium, and gold).\r\n   */\r\n    uint256 NUM_OPTIONS = 3;\r\n    uint256 SINGLE_TICKETS_OPTION = 0;\r\n    uint256 MULTIPLE_TICKETS_OPTION = 1;\r\n    uint256 NUM_TICKETS_IN_MULTIPLE_TICKETS_OPTION = 4;\r\n\r\n    constructor(address _proxyRegistryAddress, address _nftAddress) public {\r\n        proxyRegistryAddress = _proxyRegistryAddress;\r\n        nftAddress = _nftAddress;\r\n    }\r\n\r\n    function name() external view returns (string) {\r\n        return \"Cryptotickets Item Sale\";\r\n    }\r\n\r\n    function symbol() external view returns (string) {\r\n        return \"CTF\";\r\n    }\r\n\r\n    function supportsFactoryInterface() public view returns (bool) {\r\n        return true;\r\n    }\r\n\r\n    function numOptions() public view returns (uint256) {\r\n        return NUM_OPTIONS;\r\n    }\r\n  \r\n    function mint(uint256 _optionId, address _toAddress) public {\r\n        // Must be sent from the owner proxy or owner.\r\n        ProxyRegistry proxyRegistry = ProxyRegistry(proxyRegistryAddress);\r\n        assert(proxyRegistry.proxies(owner) == msg.sender || owner == msg.sender);\r\n        assert(proxyRegistry.proxies(owner) == msg.sender || owner == msg.sender);\r\n        require(canMint(_optionId));\r\n   \r\n        Cryptotickets cryptoticket = Cryptotickets(nftAddress);\r\n        if (_optionId == SINGLE_TICKETS_OPTION) {\r\n            cryptoticket.mintTo(_toAddress);\r\n        } else if (_optionId == MULTIPLE_TICKETS_OPTION) {\r\n            for (uint256 i = 0; i < NUM_TICKETS_IN_MULTIPLE_TICKETS_OPTION; i++) {\r\n                cryptoticket.mintTo(_toAddress);\r\n            }\r\n        } \r\n    }\r\n\r\n    function canMint(uint256 _optionId) public view returns (bool) {\r\n        if (_optionId >= NUM_OPTIONS) {\r\n            return false;\r\n        }\r\n\r\n        Cryptotickets cryptoticket = Cryptotickets(nftAddress);\r\n        uint256 ticketSupply = cryptoticket.totalSupply();\r\n\r\n        uint256 numItemsAllocated = 0;\r\n        if (_optionId == SINGLE_TICKETS_OPTION) {\r\n            numItemsAllocated = 1;\r\n        } else if (_optionId == MULTIPLE_TICKETS_OPTION) {\r\n            numItemsAllocated = NUM_TICKETS_IN_MULTIPLE_TICKETS_OPTION;\r\n        } \r\n        return ticketSupply < (TICKETS_SUPPLY - numItemsAllocated);\r\n    }\r\n  \r\n    function tokenURI(uint256 _optionId) public view returns (string) {\r\n        return Strings.strConcat(\r\n            baseURI,\r\n            Strings.uint2str(_optionId)\r\n        );\r\n    }\r\n\r\n  /**\r\n   * Hack to get things to work automatically on OpenSea.\r\n   * Use transferFrom so the frontend doesn't have to worry about different method names.\r\n   */\r\n    function transferFrom(address _from, address _to, uint256 _tokenId) public {\r\n        mint(_tokenId, _to);\r\n    }\r\n\r\n  /**\r\n   * Hack to get things to work automatically on OpenSea.\r\n   * Use isApprovedForAll so the frontend doesn't have to worry about different method names.\r\n   */\r\n    function isApprovedForAll(\r\n        address _owner,\r\n        address _operator\r\n        )\r\n        public\r\n        view\r\n        returns (bool)\r\n        {\r\n        if (owner == _owner && _owner == _operator) {\r\n            return true;\r\n        }\r\n\r\n        ProxyRegistry proxyRegistry = ProxyRegistry(proxyRegistryAddress);\r\n        if (owner == _owner && proxyRegistry.proxies(_owner) == _operator) {\r\n            return true;\r\n        }\r\n\r\n        return false;\r\n    }\r\n\r\n  /**\r\n   * Hack to get things to work automatically on OpenSea.\r\n   * Use isApprovedForAll so the frontend doesn't have to worry about different method names.\r\n   */\r\n    function ownerOf(uint256 _tokenId) public view returns (address _owner) {\r\n        return owner;\r\n    }\r\n}",
  "sourcePath": "K:/code/cryptotickets/backend/contracts/TicketsFactory.sol",
  "compiler": {
    "name": "solc",
    "version": "0.4.24+commit.e67f0147.Emscripten.clang"
  },
  "schemaVersion": "3.0.0",
  "updatedAt": "2019-01-05T02:28:33.810Z",
  "devdoc": {
    "methods": {
      "renounceOwnership()": {
        "details": "Allows the current owner to relinquish control of the contract."
      },
      "transferOwnership(address)": {
        "details": "Allows the current owner to transfer control of the contract to a newOwner.",
        "params": {
          "_newOwner": "The address to transfer ownership to."
        }
      }
    }
  },
  "userdoc": {
    "methods": {
      "isApprovedForAll(address,address)": {
        "notice": "Hack to get things to work automatically on OpenSea.\r Use isApprovedForAll so the frontend doesn't have to worry about different method names.\r"
      },
      "ownerOf(uint256)": {
        "notice": "Hack to get things to work automatically on OpenSea.\r Use isApprovedForAll so the frontend doesn't have to worry about different method names.\r"
      },
      "renounceOwnership()": {
        "notice": "Renouncing to ownership will leave the contract without an owner. It will not be possible to call the functions with the `onlyOwner` modifier anymore."
      },
      "transferFrom(address,address,uint256)": {
        "notice": "Hack to get things to work automatically on OpenSea.\r Use transferFrom so the frontend doesn't have to worry about different method names.\r"
      }
    }
  }
}